{
  "_format": "hh-sol-artifact-1",
  "contractName": "ERC721",
  "sourceName": "contracts/ERC721.sol",
  "abi": [
    {
      "inputs": [
        {
          "internalType": "bool",
          "name": "_isBaseImplementation",
          "type": "bool"
        }
      ],
      "stateMutability": "nonpayable",
      "type": "constructor"
    },
    {
      "inputs": [],
      "name": "ERC721EnumerableForbiddenBatchMint",
      "type": "error"
    },
    {
      "inputs": [
        {
          "internalType": "address",
          "name": "sender",
          "type": "address"
        },
        {
          "internalType": "uint256",
          "name": "tokenId",
          "type": "uint256"
        },
        {
          "internalType": "address",
          "name": "owner",
          "type": "address"
        }
      ],
      "name": "ERC721IncorrectOwner",
      "type": "error"
    },
    {
      "inputs": [
        {
          "internalType": "address",
          "name": "operator",
          "type": "address"
        },
        {
          "internalType": "uint256",
          "name": "tokenId",
          "type": "uint256"
        }
      ],
      "name": "ERC721InsufficientApproval",
      "type": "error"
    },
    {
      "inputs": [
        {
          "internalType": "address",
          "name": "approver",
          "type": "address"
        }
      ],
      "name": "ERC721InvalidApprover",
      "type": "error"
    },
    {
      "inputs": [
        {
          "internalType": "address",
          "name": "operator",
          "type": "address"
        }
      ],
      "name": "ERC721InvalidOperator",
      "type": "error"
    },
    {
      "inputs": [
        {
          "internalType": "address",
          "name": "owner",
          "type": "address"
        }
      ],
      "name": "ERC721InvalidOwner",
      "type": "error"
    },
    {
      "inputs": [
        {
          "internalType": "address",
          "name": "receiver",
          "type": "address"
        }
      ],
      "name": "ERC721InvalidReceiver",
      "type": "error"
    },
    {
      "inputs": [
        {
          "internalType": "address",
          "name": "sender",
          "type": "address"
        }
      ],
      "name": "ERC721InvalidSender",
      "type": "error"
    },
    {
      "inputs": [
        {
          "internalType": "uint256",
          "name": "tokenId",
          "type": "uint256"
        }
      ],
      "name": "ERC721NonexistentToken",
      "type": "error"
    },
    {
      "inputs": [
        {
          "internalType": "address",
          "name": "owner",
          "type": "address"
        },
        {
          "internalType": "uint256",
          "name": "index",
          "type": "uint256"
        }
      ],
      "name": "ERC721OutOfBoundsIndex",
      "type": "error"
    },
    {
      "inputs": [],
      "name": "EnforcedPause",
      "type": "error"
    },
    {
      "inputs": [],
      "name": "ExpectedPause",
      "type": "error"
    },
    {
      "inputs": [],
      "name": "InvalidInitialization",
      "type": "error"
    },
    {
      "inputs": [],
      "name": "NotInitializing",
      "type": "error"
    },
    {
      "inputs": [
        {
          "internalType": "address",
          "name": "owner",
          "type": "address"
        }
      ],
      "name": "OwnableInvalidOwner",
      "type": "error"
    },
    {
      "inputs": [
        {
          "internalType": "address",
          "name": "account",
          "type": "address"
        }
      ],
      "name": "OwnableUnauthorizedAccount",
      "type": "error"
    },
    {
      "inputs": [],
      "name": "ReentrancyGuardReentrantCall",
      "type": "error"
    },
    {
      "anonymous": false,
      "inputs": [
        {
          "indexed": true,
          "internalType": "address",
          "name": "owner",
          "type": "address"
        },
        {
          "indexed": true,
          "internalType": "address",
          "name": "approved",
          "type": "address"
        },
        {
          "indexed": true,
          "internalType": "uint256",
          "name": "tokenId",
          "type": "uint256"
        }
      ],
      "name": "Approval",
      "type": "event"
    },
    {
      "anonymous": false,
      "inputs": [
        {
          "indexed": true,
          "internalType": "address",
          "name": "owner",
          "type": "address"
        },
        {
          "indexed": true,
          "internalType": "address",
          "name": "operator",
          "type": "address"
        },
        {
          "indexed": false,
          "internalType": "bool",
          "name": "approved",
          "type": "bool"
        }
      ],
      "name": "ApprovalForAll",
      "type": "event"
    },
    {
      "anonymous": false,
      "inputs": [
        {
          "indexed": false,
          "internalType": "uint64",
          "name": "version",
          "type": "uint64"
        }
      ],
      "name": "Initialized",
      "type": "event"
    },
    {
      "anonymous": false,
      "inputs": [
        {
          "indexed": true,
          "internalType": "address",
          "name": "previousOwner",
          "type": "address"
        },
        {
          "indexed": true,
          "internalType": "address",
          "name": "newOwner",
          "type": "address"
        }
      ],
      "name": "OwnershipTransferred",
      "type": "event"
    },
    {
      "anonymous": false,
      "inputs": [
        {
          "indexed": false,
          "internalType": "address",
          "name": "account",
          "type": "address"
        }
      ],
      "name": "Paused",
      "type": "event"
    },
    {
      "anonymous": false,
      "inputs": [
        {
          "indexed": true,
          "internalType": "address",
          "name": "from",
          "type": "address"
        },
        {
          "indexed": true,
          "internalType": "address",
          "name": "to",
          "type": "address"
        },
        {
          "indexed": true,
          "internalType": "uint256",
          "name": "tokenId",
          "type": "uint256"
        }
      ],
      "name": "Transfer",
      "type": "event"
    },
    {
      "anonymous": false,
      "inputs": [
        {
          "indexed": false,
          "internalType": "address",
          "name": "account",
          "type": "address"
        }
      ],
      "name": "Unpaused",
      "type": "event"
    },
    {
      "inputs": [
        {
          "internalType": "address",
          "name": "to",
          "type": "address"
        },
        {
          "internalType": "uint256",
          "name": "tokenId",
          "type": "uint256"
        }
      ],
      "name": "approve",
      "outputs": [],
      "stateMutability": "nonpayable",
      "type": "function"
    },
    {
      "inputs": [
        {
          "internalType": "address",
          "name": "owner",
          "type": "address"
        }
      ],
      "name": "balanceOf",
      "outputs": [
        {
          "internalType": "uint256",
          "name": "",
          "type": "uint256"
        }
      ],
      "stateMutability": "view",
      "type": "function"
    },
    {
      "inputs": [
        {
          "internalType": "uint256",
          "name": "tokenId",
          "type": "uint256"
        }
      ],
      "name": "burn",
      "outputs": [],
      "stateMutability": "nonpayable",
      "type": "function"
    },
    {
      "inputs": [
        {
          "internalType": "uint256",
          "name": "tokenId",
          "type": "uint256"
        }
      ],
      "name": "getApproved",
      "outputs": [
        {
          "internalType": "address",
          "name": "",
          "type": "address"
        }
      ],
      "stateMutability": "view",
      "type": "function"
    },
    {
      "inputs": [
        {
          "internalType": "string",
          "name": "_contract_name",
          "type": "string"
        },
        {
          "internalType": "string",
          "name": "_symbol_name",
          "type": "string"
        },
        {
          "internalType": "uint256",
          "name": "_salePrice",
          "type": "uint256"
        },
        {
          "internalType": "uint256",
          "name": "_maxSupply",
          "type": "uint256"
        },
        {
          "internalType": "address",
          "name": "initialOwner",
          "type": "address"
        }
      ],
      "name": "initialize",
      "outputs": [],
      "stateMutability": "nonpayable",
      "type": "function"
    },
    {
      "inputs": [
        {
          "internalType": "address",
          "name": "owner",
          "type": "address"
        },
        {
          "internalType": "address",
          "name": "operator",
          "type": "address"
        }
      ],
      "name": "isApprovedForAll",
      "outputs": [
        {
          "internalType": "bool",
          "name": "",
          "type": "bool"
        }
      ],
      "stateMutability": "view",
      "type": "function"
    },
    {
      "inputs": [],
      "name": "maxSupply",
      "outputs": [
        {
          "internalType": "uint256",
          "name": "",
          "type": "uint256"
        }
      ],
      "stateMutability": "view",
      "type": "function"
    },
    {
      "inputs": [
        {
          "internalType": "address",
          "name": "_to",
          "type": "address"
        }
      ],
      "name": "mintNFT",
      "outputs": [],
      "stateMutability": "payable",
      "type": "function"
    },
    {
      "inputs": [],
      "name": "name",
      "outputs": [
        {
          "internalType": "string",
          "name": "",
          "type": "string"
        }
      ],
      "stateMutability": "view",
      "type": "function"
    },
    {
      "inputs": [],
      "name": "owner",
      "outputs": [
        {
          "internalType": "address",
          "name": "",
          "type": "address"
        }
      ],
      "stateMutability": "view",
      "type": "function"
    },
    {
      "inputs": [
        {
          "internalType": "uint256",
          "name": "tokenId",
          "type": "uint256"
        }
      ],
      "name": "ownerOf",
      "outputs": [
        {
          "internalType": "address",
          "name": "",
          "type": "address"
        }
      ],
      "stateMutability": "view",
      "type": "function"
    },
    {
      "inputs": [],
      "name": "pause",
      "outputs": [],
      "stateMutability": "nonpayable",
      "type": "function"
    },
    {
      "inputs": [],
      "name": "paused",
      "outputs": [
        {
          "internalType": "bool",
          "name": "",
          "type": "bool"
        }
      ],
      "stateMutability": "view",
      "type": "function"
    },
    {
      "inputs": [],
      "name": "renounceOwnership",
      "outputs": [],
      "stateMutability": "nonpayable",
      "type": "function"
    },
    {
      "inputs": [
        {
          "internalType": "address",
          "name": "from",
          "type": "address"
        },
        {
          "internalType": "address",
          "name": "to",
          "type": "address"
        },
        {
          "internalType": "uint256",
          "name": "tokenId",
          "type": "uint256"
        }
      ],
      "name": "safeTransferFrom",
      "outputs": [],
      "stateMutability": "nonpayable",
      "type": "function"
    },
    {
      "inputs": [
        {
          "internalType": "address",
          "name": "from",
          "type": "address"
        },
        {
          "internalType": "address",
          "name": "to",
          "type": "address"
        },
        {
          "internalType": "uint256",
          "name": "tokenId",
          "type": "uint256"
        },
        {
          "internalType": "bytes",
          "name": "data",
          "type": "bytes"
        }
      ],
      "name": "safeTransferFrom",
      "outputs": [],
      "stateMutability": "nonpayable",
      "type": "function"
    },
    {
      "inputs": [],
      "name": "salePrice",
      "outputs": [
        {
          "internalType": "uint256",
          "name": "",
          "type": "uint256"
        }
      ],
      "stateMutability": "view",
      "type": "function"
    },
    {
      "inputs": [
        {
          "internalType": "address",
          "name": "operator",
          "type": "address"
        },
        {
          "internalType": "bool",
          "name": "approved",
          "type": "bool"
        }
      ],
      "name": "setApprovalForAll",
      "outputs": [],
      "stateMutability": "nonpayable",
      "type": "function"
    },
    {
      "inputs": [
        {
          "internalType": "bytes4",
          "name": "interfaceId",
          "type": "bytes4"
        }
      ],
      "name": "supportsInterface",
      "outputs": [
        {
          "internalType": "bool",
          "name": "",
          "type": "bool"
        }
      ],
      "stateMutability": "view",
      "type": "function"
    },
    {
      "inputs": [],
      "name": "symbol",
      "outputs": [
        {
          "internalType": "string",
          "name": "",
          "type": "string"
        }
      ],
      "stateMutability": "view",
      "type": "function"
    },
    {
      "inputs": [
        {
          "internalType": "uint256",
          "name": "index",
          "type": "uint256"
        }
      ],
      "name": "tokenByIndex",
      "outputs": [
        {
          "internalType": "uint256",
          "name": "",
          "type": "uint256"
        }
      ],
      "stateMutability": "view",
      "type": "function"
    },
    {
      "inputs": [
        {
          "internalType": "address",
          "name": "owner",
          "type": "address"
        },
        {
          "internalType": "uint256",
          "name": "index",
          "type": "uint256"
        }
      ],
      "name": "tokenOfOwnerByIndex",
      "outputs": [
        {
          "internalType": "uint256",
          "name": "",
          "type": "uint256"
        }
      ],
      "stateMutability": "view",
      "type": "function"
    },
    {
      "inputs": [
        {
          "internalType": "uint256",
          "name": "tokenId",
          "type": "uint256"
        }
      ],
      "name": "tokenURI",
      "outputs": [
        {
          "internalType": "string",
          "name": "",
          "type": "string"
        }
      ],
      "stateMutability": "view",
      "type": "function"
    },
    {
      "inputs": [],
      "name": "totalSupply",
      "outputs": [
        {
          "internalType": "uint256",
          "name": "",
          "type": "uint256"
        }
      ],
      "stateMutability": "view",
      "type": "function"
    },
    {
      "inputs": [
        {
          "internalType": "address",
          "name": "from",
          "type": "address"
        },
        {
          "internalType": "address",
          "name": "to",
          "type": "address"
        },
        {
          "internalType": "uint256",
          "name": "tokenId",
          "type": "uint256"
        }
      ],
      "name": "transferFrom",
      "outputs": [],
      "stateMutability": "nonpayable",
      "type": "function"
    },
    {
      "inputs": [
        {
          "internalType": "address",
          "name": "newOwner",
          "type": "address"
        }
      ],
      "name": "transferOwnership",
      "outputs": [],
      "stateMutability": "nonpayable",
      "type": "function"
    },
    {
      "inputs": [],
      "name": "unpause",
      "outputs": [],
      "stateMutability": "nonpayable",
      "type": "function"
    }
  ],
  "bytecode": "0x60806040523480156200001157600080fd5b50604051620039dd380380620039dd8339818101604052810190620000379190620001ca565b80156200004f576200004e6200005660201b60201c565b5b506200023e565b6000620000686200016060201b60201c565b90508060000160089054906101000a900460ff1615620000b4576040517ff92ee8a900000000000000000000000000000000000000000000000000000000815260040160405180910390fd5b67ffffffffffffffff80168160000160009054906101000a900467ffffffffffffffff1667ffffffffffffffff16146200015d5767ffffffffffffffff8160000160006101000a81548167ffffffffffffffff021916908367ffffffffffffffff1602179055507fc7f505b2f371ae2175ee4913f4499e1f2633a7b5936321eed1cdaeb6115181d267ffffffffffffffff60405162000154919062000221565b60405180910390a15b50565b60007ff0c57e16840df040f15088dc2f81fe391c3923bec73e23a9662efc9c229c6a00905090565b600080fd5b60008115159050919050565b620001a4816200018d565b8114620001b057600080fd5b50565b600081519050620001c48162000199565b92915050565b600060208284031215620001e357620001e262000188565b5b6000620001f384828501620001b3565b91505092915050565b600067ffffffffffffffff82169050919050565b6200021b81620001fc565b82525050565b600060208201905062000238600083018462000210565b92915050565b61378f806200024e6000396000f3fe60806040526004361061019c5760003560e01c80635c975abb116100ec578063a22cb4651161008a578063d5abeb0111610064578063d5abeb01146105a3578063e985e9c5146105ce578063f2fde38b1461060b578063f51f96dd146106345761019c565b8063a22cb46514610514578063b88d4fde1461053d578063c87b56dd146105665761019c565b8063715018a6116100c6578063715018a6146104905780638456cb59146104a75780638da5cb5b146104be57806395d89b41146104e95761019c565b80635c975abb146103eb5780636352211e1461041657806370a08231146104535761019c565b80632f745c591161015957806342842e0e1161013357806342842e0e1461034057806342966c68146103695780634f6ccce71461039257806354ba0f27146103cf5761019c565b80632f745c59146102c357806333eea181146103005780633f4ba83a146103295761019c565b806301ffc9a7146101a157806306fdde03146101de578063081812fc14610209578063095ea7b31461024657806318160ddd1461026f57806323b872dd1461029a575b600080fd5b3480156101ad57600080fd5b506101c860048036038101906101c391906129bc565b61065f565b6040516101d59190612a04565b60405180910390f35b3480156101ea57600080fd5b506101f3610671565b6040516102009190612aaf565b60405180910390f35b34801561021557600080fd5b50610230600480360381019061022b9190612b07565b610712565b60405161023d9190612b75565b60405180910390f35b34801561025257600080fd5b5061026d60048036038101906102689190612bbc565b61072e565b005b34801561027b57600080fd5b50610284610744565b6040516102919190612c0b565b60405180910390f35b3480156102a657600080fd5b506102c160048036038101906102bc9190612c26565b61075f565b005b3480156102cf57600080fd5b506102ea60048036038101906102e59190612bbc565b610861565b6040516102f79190612c0b565b60405180910390f35b34801561030c57600080fd5b5061032760048036038101906103229190612dae565b610918565b005b34801561033557600080fd5b5061033e610adb565b005b34801561034c57600080fd5b5061036760048036038101906103629190612c26565b610aed565b005b34801561037557600080fd5b50610390600480360381019061038b9190612b07565b610b0d565b005b34801561039e57600080fd5b506103b960048036038101906103b49190612b07565b610b24565b6040516103c69190612c0b565b60405180910390f35b6103e960048036038101906103e49190612e61565b610ba8565b005b3480156103f757600080fd5b50610400610c4b565b60405161040d9190612a04565b60405180910390f35b34801561042257600080fd5b5061043d60048036038101906104389190612b07565b610c70565b60405161044a9190612b75565b60405180910390f35b34801561045f57600080fd5b5061047a60048036038101906104759190612e61565b610c82565b6040516104879190612c0b565b60405180910390f35b34801561049c57600080fd5b506104a5610d4b565b005b3480156104b357600080fd5b506104bc610d5f565b005b3480156104ca57600080fd5b506104d3610d71565b6040516104e09190612b75565b60405180910390f35b3480156104f557600080fd5b506104fe610da9565b60405161050b9190612aaf565b60405180910390f35b34801561052057600080fd5b5061053b60048036038101906105369190612eba565b610e4a565b005b34801561054957600080fd5b50610564600480360381019061055f9190612f9b565b610e60565b005b34801561057257600080fd5b5061058d60048036038101906105889190612b07565b610e7d565b60405161059a9190612aaf565b60405180910390f35b3480156105af57600080fd5b506105b8610ee6565b6040516105c59190612c0b565b60405180910390f35b3480156105da57600080fd5b506105f560048036038101906105f0919061301e565b610eec565b6040516106029190612a04565b60405180910390f35b34801561061757600080fd5b50610632600480360381019061062d9190612e61565b610f8e565b005b34801561064057600080fd5b50610649611014565b6040516106569190612c0b565b60405180910390f35b600061066a8261101a565b9050919050565b6060600061067d611094565b905080600001805461068e9061308d565b80601f01602080910402602001604051908101604052809291908181526020018280546106ba9061308d565b80156107075780601f106106dc57610100808354040283529160200191610707565b820191906000526020600020905b8154815290600101906020018083116106ea57829003601f168201915b505050505091505090565b600061071d826110bc565b5061072782611144565b9050919050565b610740828261073b61118f565b611197565b5050565b60008061074f6111a9565b9050806002018054905091505090565b600073ffffffffffffffffffffffffffffffffffffffff168273ffffffffffffffffffffffffffffffffffffffff16036107d15760006040517f64a0ae920000000000000000000000000000000000000000000000000000000081526004016107c89190612b75565b60405180910390fd5b60006107e583836107e061118f565b6111d1565b90508373ffffffffffffffffffffffffffffffffffffffff168173ffffffffffffffffffffffffffffffffffffffff161461085b578382826040517f64283d7b000000000000000000000000000000000000000000000000000000008152600401610852939291906130be565b60405180910390fd5b50505050565b60008061086c6111a9565b905061087784610c82565b83106108bc5783836040517fa57d13dc0000000000000000000000000000000000000000000000000000000081526004016108b39291906130f5565b60405180910390fd5b8060000160008573ffffffffffffffffffffffffffffffffffffffff1673ffffffffffffffffffffffffffffffffffffffff16815260200190815260200160002060008481526020019081526020016000205491505092915050565b60006109226111e7565b905060008160000160089054906101000a900460ff1615905060008260000160009054906101000a900467ffffffffffffffff1690506000808267ffffffffffffffff161480156109705750825b9050600060018367ffffffffffffffff161480156109a5575060003073ffffffffffffffffffffffffffffffffffffffff163b145b9050811580156109b3575080155b156109ea576040517ff92ee8a900000000000000000000000000000000000000000000000000000000815260040160405180910390fd5b60018560000160006101000a81548167ffffffffffffffff021916908367ffffffffffffffff1602179055508315610a3a5760018560000160086101000a81548160ff0219169083151502179055505b610a448a8a61120f565b8760008190555086600181905550610a5a611225565b610a6261122f565b610a6b86611241565b610a73611255565b8315610acf5760008560000160086101000a81548160ff0219169083151502179055507fc7f505b2f371ae2175ee4913f4499e1f2633a7b5936321eed1cdaeb6115181d26001604051610ac69190613177565b60405180910390a15b50505050505050505050565b610ae361125f565b610aeb6112e6565b565b610b0883838360405180602001604052806000815250610e60565b505050565b610b20600082610b1b61118f565b6111d1565b5050565b600080610b2f6111a9565b9050610b39610744565b8310610b7f576000836040517fa57d13dc000000000000000000000000000000000000000000000000000000008152600401610b769291906130f5565b60405180910390fd5b806002018381548110610b9557610b94613192565b5b9060005260206000200154915050919050565b610bb0611358565b6000543414610bf4576040517f08c379a0000000000000000000000000000000000000000000000000000000008152600401610beb9061320d565b60405180910390fd5b600154610bff610744565b10610c3f576040517f08c379a0000000000000000000000000000000000000000000000000000000008152600401610c3690613279565b60405180910390fd5b610c4881611399565b50565b600080610c566113ca565b90508060000160009054906101000a900460ff1691505090565b6000610c7b826110bc565b9050919050565b600080610c8d611094565b9050600073ffffffffffffffffffffffffffffffffffffffff168373ffffffffffffffffffffffffffffffffffffffff1603610d015760006040517f89c62b64000000000000000000000000000000000000000000000000000000008152600401610cf89190612b75565b60405180910390fd5b8060030160008473ffffffffffffffffffffffffffffffffffffffff1673ffffffffffffffffffffffffffffffffffffffff16815260200190815260200160002054915050919050565b610d5361125f565b610d5d60006113f2565b565b610d6761125f565b610d6f6114c9565b565b600080610d7c61153b565b90508060000160009054906101000a900473ffffffffffffffffffffffffffffffffffffffff1691505090565b60606000610db5611094565b9050806001018054610dc69061308d565b80601f0160208091040260200160405190810160405280929190818152602001828054610df29061308d565b8015610e3f5780601f10610e1457610100808354040283529160200191610e3f565b820191906000526020600020905b815481529060010190602001808311610e2257829003601f168201915b505050505091505090565b610e5c610e5561118f565b8383611563565b5050565b610e6b84848461075f565b610e77848484846116e1565b50505050565b6060610e88826110bc565b506000610e93611898565b90506000815111610eb35760405180602001604052806000815250610ede565b80610ebd846118af565b604051602001610ece9291906132d5565b6040516020818303038152906040525b915050919050565b60015481565b600080610ef7611094565b90508060050160008573ffffffffffffffffffffffffffffffffffffffff1673ffffffffffffffffffffffffffffffffffffffff16815260200190815260200160002060008473ffffffffffffffffffffffffffffffffffffffff1673ffffffffffffffffffffffffffffffffffffffff16815260200190815260200160002060009054906101000a900460ff1691505092915050565b610f9661125f565b600073ffffffffffffffffffffffffffffffffffffffff168173ffffffffffffffffffffffffffffffffffffffff16036110085760006040517f1e4fbdf7000000000000000000000000000000000000000000000000000000008152600401610fff9190612b75565b60405180910390fd5b611011816113f2565b50565b60005481565b60007f780e9d63000000000000000000000000000000000000000000000000000000007bffffffffffffffffffffffffffffffffffffffffffffffffffffffff1916827bffffffffffffffffffffffffffffffffffffffffffffffffffffffff1916148061108d575061108c8261197d565b5b9050919050565b60007f80bb2b638cc20bc4d0a60d66940f3ab4a00c1d7b313497ca82fb0b4ab0079300905090565b6000806110c883611a5f565b9050600073ffffffffffffffffffffffffffffffffffffffff168173ffffffffffffffffffffffffffffffffffffffff160361113b57826040517f7e2732890000000000000000000000000000000000000000000000000000000081526004016111329190612c0b565b60405180910390fd5b80915050919050565b60008061114f611094565b905080600401600084815260200190815260200160002060009054906101000a900473ffffffffffffffffffffffffffffffffffffffff16915050919050565b600033905090565b6111a48383836001611aaa565b505050565b60007f645e039705490088daad89bae25049a34f4a9072d398537b1ab2425f24cbed00905090565b60006111de848484611c7e565b90509392505050565b60007ff0c57e16840df040f15088dc2f81fe391c3923bec73e23a9662efc9c229c6a00905090565b611217611c9c565b6112218282611cdc565b5050565b61122d611c9c565b565b611237611c9c565b61123f611d19565b565b611249611c9c565b61125281611d4d565b50565b61125d611c9c565b565b61126761118f565b73ffffffffffffffffffffffffffffffffffffffff16611285610d71565b73ffffffffffffffffffffffffffffffffffffffff16146112e4576112a861118f565b6040517f118cdaa70000000000000000000000000000000000000000000000000000000081526004016112db9190612b75565b60405180910390fd5b565b6112ee611dd3565b60006112f86113ca565b905060008160000160006101000a81548160ff0219169083151502179055507f5db9ee0a495bf2e6ff9c91a7834c1ba4fdd244a5e8aa4e537bd38aeae4b073aa61134061118f565b60405161134d9190612b75565b60405180910390a150565b611360610c4b565b15611397576040517fd93c066500000000000000000000000000000000000000000000000000000000815260040160405180910390fd5b565b6113a161125f565b6000600260008154809291906113b690613328565b9190505590506113c68282611e13565b5050565b60007fcd5ed15c6e187e77e9aee88184c21f4f2182ab5827cb3b7e07fbedcd63f03300905090565b60006113fc61153b565b905060008160000160009054906101000a900473ffffffffffffffffffffffffffffffffffffffff169050828260000160006101000a81548173ffffffffffffffffffffffffffffffffffffffff021916908373ffffffffffffffffffffffffffffffffffffffff1602179055508273ffffffffffffffffffffffffffffffffffffffff168173ffffffffffffffffffffffffffffffffffffffff167f8be0079c531659141344cd1fd0a4f28419497f9722a3daafe3b4186f6b6457e060405160405180910390a3505050565b6114d1611358565b60006114db6113ca565b905060018160000160006101000a81548160ff0219169083151502179055507f62e78cea01bee320cd4e420270b5ea74000d11b0c9f74754ebdbfc544b05a25861152361118f565b6040516115309190612b75565b60405180910390a150565b60007f9016d09d72d40fdae2fd8ceac6b6234c7706214fd39c1cd1e609a0528c199300905090565b600061156d611094565b9050600073ffffffffffffffffffffffffffffffffffffffff168373ffffffffffffffffffffffffffffffffffffffff16036115e057826040517f5b08ba180000000000000000000000000000000000000000000000000000000081526004016115d79190612b75565b60405180910390fd5b818160050160008673ffffffffffffffffffffffffffffffffffffffff1673ffffffffffffffffffffffffffffffffffffffff16815260200190815260200160002060008573ffffffffffffffffffffffffffffffffffffffff1673ffffffffffffffffffffffffffffffffffffffff16815260200190815260200160002060006101000a81548160ff0219169083151502179055508273ffffffffffffffffffffffffffffffffffffffff168473ffffffffffffffffffffffffffffffffffffffff167f17307eab39ab6107e8899845ad3d59bd9653f200f220920489ca2b5937696c31846040516116d39190612a04565b60405180910390a350505050565b60008373ffffffffffffffffffffffffffffffffffffffff163b1115611892578273ffffffffffffffffffffffffffffffffffffffff1663150b7a0261172561118f565b8685856040518563ffffffff1660e01b815260040161174794939291906133c5565b6020604051808303816000875af192505050801561178357506040513d601f19601f820116820180604052508101906117809190613426565b60015b611807573d80600081146117b3576040519150601f19603f3d011682016040523d82523d6000602084013e6117b8565b606091505b5060008151036117ff57836040517f64a0ae920000000000000000000000000000000000000000000000000000000081526004016117f69190612b75565b60405180910390fd5b805181602001fd5b63150b7a0260e01b7bffffffffffffffffffffffffffffffffffffffffffffffffffffffff1916817bffffffffffffffffffffffffffffffffffffffffffffffffffffffff19161461189057836040517f64a0ae920000000000000000000000000000000000000000000000000000000081526004016118879190612b75565b60405180910390fd5b505b50505050565b606060405180602001604052806000815250905090565b6060600060016118be84611e31565b01905060008167ffffffffffffffff8111156118dd576118dc612c83565b5b6040519080825280601f01601f19166020018201604052801561190f5781602001600182028036833780820191505090505b509050600082602001820190505b600115611972578080600190039150507f3031323334353637383961626364656600000000000000000000000000000000600a86061a8153600a858161196657611965613453565b5b0494506000850361191d575b819350505050919050565b60007f80ac58cd000000000000000000000000000000000000000000000000000000007bffffffffffffffffffffffffffffffffffffffffffffffffffffffff1916827bffffffffffffffffffffffffffffffffffffffffffffffffffffffff19161480611a4857507f5b5e139f000000000000000000000000000000000000000000000000000000007bffffffffffffffffffffffffffffffffffffffffffffffffffffffff1916827bffffffffffffffffffffffffffffffffffffffffffffffffffffffff1916145b80611a585750611a5782611f84565b5b9050919050565b600080611a6a611094565b905080600201600084815260200190815260200160002060009054906101000a900473ffffffffffffffffffffffffffffffffffffffff16915050919050565b6000611ab4611094565b90508180611aef5750600073ffffffffffffffffffffffffffffffffffffffff168373ffffffffffffffffffffffffffffffffffffffff1614155b15611c23576000611aff856110bc565b9050600073ffffffffffffffffffffffffffffffffffffffff168473ffffffffffffffffffffffffffffffffffffffff1614158015611b6a57508373ffffffffffffffffffffffffffffffffffffffff168173ffffffffffffffffffffffffffffffffffffffff1614155b8015611b7d5750611b7b8185610eec565b155b15611bbf57836040517fa9fbf51f000000000000000000000000000000000000000000000000000000008152600401611bb69190612b75565b60405180910390fd5b8215611c2157848673ffffffffffffffffffffffffffffffffffffffff168273ffffffffffffffffffffffffffffffffffffffff167f8c5be1e5ebec7d5bd14f71427d1e84f3dd0314c0f7b2291e5b200ac8c7c3b92560405160405180910390a45b505b8481600401600086815260200190815260200160002060006101000a81548173ffffffffffffffffffffffffffffffffffffffff021916908373ffffffffffffffffffffffffffffffffffffffff1602179055505050505050565b6000611c88611358565b611c93848484611fee565b90509392505050565b611ca461210b565b611cda576040517fd7e6bcf800000000000000000000000000000000000000000000000000000000815260040160405180910390fd5b565b611ce4611c9c565b6000611cee611094565b905082816000019081611d019190613624565b5081816001019081611d139190613624565b50505050565b611d21611c9c565b6000611d2b6113ca565b905060008160000160006101000a81548160ff02191690831515021790555050565b611d55611c9c565b600073ffffffffffffffffffffffffffffffffffffffff168173ffffffffffffffffffffffffffffffffffffffff1603611dc75760006040517f1e4fbdf7000000000000000000000000000000000000000000000000000000008152600401611dbe9190612b75565b60405180910390fd5b611dd0816113f2565b50565b611ddb610c4b565b611e11576040517f8dfc202b00000000000000000000000000000000000000000000000000000000815260040160405180910390fd5b565b611e2d82826040518060200160405280600081525061212b565b5050565b600080600090507a184f03e93ff9f4daa797ed6e38ed64bf6a1f0100000000000000008310611e8f577a184f03e93ff9f4daa797ed6e38ed64bf6a1f0100000000000000008381611e8557611e84613453565b5b0492506040810190505b6d04ee2d6d415b85acef81000000008310611ecc576d04ee2d6d415b85acef81000000008381611ec257611ec1613453565b5b0492506020810190505b662386f26fc100008310611efb57662386f26fc100008381611ef157611ef0613453565b5b0492506010810190505b6305f5e1008310611f24576305f5e1008381611f1a57611f19613453565b5b0492506008810190505b6127108310611f49576127108381611f3f57611f3e613453565b5b0492506004810190505b60648310611f6c5760648381611f6257611f61613453565b5b0492506002810190505b600a8310611f7b576001810190505b80915050919050565b60007f01ffc9a7000000000000000000000000000000000000000000000000000000007bffffffffffffffffffffffffffffffffffffffffffffffffffffffff1916827bffffffffffffffffffffffffffffffffffffffffffffffffffffffff1916149050919050565b600080611ffc858585612147565b9050600073ffffffffffffffffffffffffffffffffffffffff168173ffffffffffffffffffffffffffffffffffffffff16036120405761203b84612374565b61207f565b8473ffffffffffffffffffffffffffffffffffffffff168173ffffffffffffffffffffffffffffffffffffffff161461207e5761207d81856123d0565b5b5b600073ffffffffffffffffffffffffffffffffffffffff168573ffffffffffffffffffffffffffffffffffffffff16036120c1576120bc8461254a565b612100565b8473ffffffffffffffffffffffffffffffffffffffff168173ffffffffffffffffffffffffffffffffffffffff16146120ff576120fe8585612636565b5b5b809150509392505050565b60006121156111e7565b60000160089054906101000a900460ff16905090565b61213583836126d2565b61214260008484846116e1565b505050565b600080612152611094565b9050600061215f85611a5f565b9050600073ffffffffffffffffffffffffffffffffffffffff168473ffffffffffffffffffffffffffffffffffffffff16146121a1576121a08185876127cb565b5b600073ffffffffffffffffffffffffffffffffffffffff168173ffffffffffffffffffffffffffffffffffffffff1614612234576121e3600086600080611aaa565b60018260030160008373ffffffffffffffffffffffffffffffffffffffff1673ffffffffffffffffffffffffffffffffffffffff168152602001908152602001600020600082825403925050819055505b600073ffffffffffffffffffffffffffffffffffffffff168673ffffffffffffffffffffffffffffffffffffffff16146122b95760018260030160008873ffffffffffffffffffffffffffffffffffffffff1673ffffffffffffffffffffffffffffffffffffffff168152602001908152602001600020600082825401925050819055505b8582600201600087815260200190815260200160002060006101000a81548173ffffffffffffffffffffffffffffffffffffffff021916908373ffffffffffffffffffffffffffffffffffffffff160217905550848673ffffffffffffffffffffffffffffffffffffffff168273ffffffffffffffffffffffffffffffffffffffff167fddf252ad1be2c89b69c2b068fc378daa952ba7f163c4a11628f55a4df523b3ef60405160405180910390a480925050509392505050565b600061237e6111a9565b9050806002018054905081600301600084815260200190815260200160002081905550806002018290806001815401808255809150506001900390600052602060002001600090919091909150555050565b60006123da6111a9565b905060006123e784610c82565b905060008260010160008581526020019081526020016000205490508181146124d45760008360000160008773ffffffffffffffffffffffffffffffffffffffff1673ffffffffffffffffffffffffffffffffffffffff1681526020019081526020016000206000848152602001908152602001600020549050808460000160008873ffffffffffffffffffffffffffffffffffffffff1673ffffffffffffffffffffffffffffffffffffffff1681526020019081526020016000206000848152602001908152602001600020819055508184600101600083815260200190815260200160002081905550505b826001016000858152602001908152602001600020600090558260000160008673ffffffffffffffffffffffffffffffffffffffff1673ffffffffffffffffffffffffffffffffffffffff1681526020019081526020016000206000838152602001908152602001600020600090555050505050565b60006125546111a9565b905060006001826002018054905061256c91906136f6565b9050600082600301600085815260200190815260200160002054905060008360020183815481106125a05761259f613192565b5b90600052602060002001549050808460020183815481106125c4576125c3613192565b5b9060005260206000200181905550818460030160008381526020019081526020016000208190555083600301600086815260200190815260200160002060009055836002018054806126195761261861372a565b5b600190038181906000526020600020016000905590555050505050565b60006126406111a9565b90506000600161264f85610c82565b61265991906136f6565b9050828260000160008673ffffffffffffffffffffffffffffffffffffffff1673ffffffffffffffffffffffffffffffffffffffff168152602001908152602001600020600083815260200190815260200160002081905550808260010160008581526020019081526020016000208190555050505050565b600073ffffffffffffffffffffffffffffffffffffffff168273ffffffffffffffffffffffffffffffffffffffff16036127445760006040517f64a0ae9200000000000000000000000000000000000000000000000000000000815260040161273b9190612b75565b60405180910390fd5b6000612752838360006111d1565b9050600073ffffffffffffffffffffffffffffffffffffffff168173ffffffffffffffffffffffffffffffffffffffff16146127c65760006040517f73c6ac6e0000000000000000000000000000000000000000000000000000000081526004016127bd9190612b75565b60405180910390fd5b505050565b6127d683838361288f565b61288a57600073ffffffffffffffffffffffffffffffffffffffff168373ffffffffffffffffffffffffffffffffffffffff160361284b57806040517f7e2732890000000000000000000000000000000000000000000000000000000081526004016128429190612c0b565b60405180910390fd5b81816040517f177e802f0000000000000000000000000000000000000000000000000000000081526004016128819291906130f5565b60405180910390fd5b505050565b60008073ffffffffffffffffffffffffffffffffffffffff168373ffffffffffffffffffffffffffffffffffffffff161415801561294757508273ffffffffffffffffffffffffffffffffffffffff168473ffffffffffffffffffffffffffffffffffffffff16148061290857506129078484610eec565b5b8061294657508273ffffffffffffffffffffffffffffffffffffffff1661292e83611144565b73ffffffffffffffffffffffffffffffffffffffff16145b5b90509392505050565b6000604051905090565b600080fd5b600080fd5b60007fffffffff0000000000000000000000000000000000000000000000000000000082169050919050565b61299981612964565b81146129a457600080fd5b50565b6000813590506129b681612990565b92915050565b6000602082840312156129d2576129d161295a565b5b60006129e0848285016129a7565b91505092915050565b60008115159050919050565b6129fe816129e9565b82525050565b6000602082019050612a1960008301846129f5565b92915050565b600081519050919050565b600082825260208201905092915050565b60005b83811015612a59578082015181840152602081019050612a3e565b60008484015250505050565b6000601f19601f8301169050919050565b6000612a8182612a1f565b612a8b8185612a2a565b9350612a9b818560208601612a3b565b612aa481612a65565b840191505092915050565b60006020820190508181036000830152612ac98184612a76565b905092915050565b6000819050919050565b612ae481612ad1565b8114612aef57600080fd5b50565b600081359050612b0181612adb565b92915050565b600060208284031215612b1d57612b1c61295a565b5b6000612b2b84828501612af2565b91505092915050565b600073ffffffffffffffffffffffffffffffffffffffff82169050919050565b6000612b5f82612b34565b9050919050565b612b6f81612b54565b82525050565b6000602082019050612b8a6000830184612b66565b92915050565b612b9981612b54565b8114612ba457600080fd5b50565b600081359050612bb681612b90565b92915050565b60008060408385031215612bd357612bd261295a565b5b6000612be185828601612ba7565b9250506020612bf285828601612af2565b9150509250929050565b612c0581612ad1565b82525050565b6000602082019050612c206000830184612bfc565b92915050565b600080600060608486031215612c3f57612c3e61295a565b5b6000612c4d86828701612ba7565b9350506020612c5e86828701612ba7565b9250506040612c6f86828701612af2565b9150509250925092565b600080fd5b600080fd5b7f4e487b7100000000000000000000000000000000000000000000000000000000600052604160045260246000fd5b612cbb82612a65565b810181811067ffffffffffffffff82111715612cda57612cd9612c83565b5b80604052505050565b6000612ced612950565b9050612cf98282612cb2565b919050565b600067ffffffffffffffff821115612d1957612d18612c83565b5b612d2282612a65565b9050602081019050919050565b82818337600083830152505050565b6000612d51612d4c84612cfe565b612ce3565b905082815260208101848484011115612d6d57612d6c612c7e565b5b612d78848285612d2f565b509392505050565b600082601f830112612d9557612d94612c79565b5b8135612da5848260208601612d3e565b91505092915050565b600080600080600060a08688031215612dca57612dc961295a565b5b600086013567ffffffffffffffff811115612de857612de761295f565b5b612df488828901612d80565b955050602086013567ffffffffffffffff811115612e1557612e1461295f565b5b612e2188828901612d80565b9450506040612e3288828901612af2565b9350506060612e4388828901612af2565b9250506080612e5488828901612ba7565b9150509295509295909350565b600060208284031215612e7757612e7661295a565b5b6000612e8584828501612ba7565b91505092915050565b612e97816129e9565b8114612ea257600080fd5b50565b600081359050612eb481612e8e565b92915050565b60008060408385031215612ed157612ed061295a565b5b6000612edf85828601612ba7565b9250506020612ef085828601612ea5565b9150509250929050565b600067ffffffffffffffff821115612f1557612f14612c83565b5b612f1e82612a65565b9050602081019050919050565b6000612f3e612f3984612efa565b612ce3565b905082815260208101848484011115612f5a57612f59612c7e565b5b612f65848285612d2f565b509392505050565b600082601f830112612f8257612f81612c79565b5b8135612f92848260208601612f2b565b91505092915050565b60008060008060808587031215612fb557612fb461295a565b5b6000612fc387828801612ba7565b9450506020612fd487828801612ba7565b9350506040612fe587828801612af2565b925050606085013567ffffffffffffffff8111156130065761300561295f565b5b61301287828801612f6d565b91505092959194509250565b600080604083850312156130355761303461295a565b5b600061304385828601612ba7565b925050602061305485828601612ba7565b9150509250929050565b7f4e487b7100000000000000000000000000000000000000000000000000000000600052602260045260246000fd5b600060028204905060018216806130a557607f821691505b6020821081036130b8576130b761305e565b5b50919050565b60006060820190506130d36000830186612b66565b6130e06020830185612bfc565b6130ed6040830184612b66565b949350505050565b600060408201905061310a6000830185612b66565b6131176020830184612bfc565b9392505050565b6000819050919050565b600067ffffffffffffffff82169050919050565b6000819050919050565b600061316161315c6131578461311e565b61313c565b613128565b9050919050565b61317181613146565b82525050565b600060208201905061318c6000830184613168565b92915050565b7f4e487b7100000000000000000000000000000000000000000000000000000000600052603260045260246000fd5b7f4e6f7420636f72726563742076616c7565000000000000000000000000000000600082015250565b60006131f7601183612a2a565b9150613202826131c1565b602082019050919050565b60006020820190508181036000830152613226816131ea565b9050919050565b7f4f766572206d6178537570706c79000000000000000000000000000000000000600082015250565b6000613263600e83612a2a565b915061326e8261322d565b602082019050919050565b6000602082019050818103600083015261329281613256565b9050919050565b600081905092915050565b60006132af82612a1f565b6132b98185613299565b93506132c9818560208601612a3b565b80840191505092915050565b60006132e182856132a4565b91506132ed82846132a4565b91508190509392505050565b7f4e487b7100000000000000000000000000000000000000000000000000000000600052601160045260246000fd5b600061333382612ad1565b91507fffffffffffffffffffffffffffffffffffffffffffffffffffffffffffffffff8203613365576133646132f9565b5b600182019050919050565b600081519050919050565b600082825260208201905092915050565b600061339782613370565b6133a1818561337b565b93506133b1818560208601612a3b565b6133ba81612a65565b840191505092915050565b60006080820190506133da6000830187612b66565b6133e76020830186612b66565b6133f46040830185612bfc565b8181036060830152613406818461338c565b905095945050505050565b60008151905061342081612990565b92915050565b60006020828403121561343c5761343b61295a565b5b600061344a84828501613411565b91505092915050565b7f4e487b7100000000000000000000000000000000000000000000000000000000600052601260045260246000fd5b60008190508160005260206000209050919050565b60006020601f8301049050919050565b600082821b905092915050565b6000600883026134e47fffffffffffffffffffffffffffffffffffffffffffffffffffffffffffffffff826134a7565b6134ee86836134a7565b95508019841693508086168417925050509392505050565b600061352161351c61351784612ad1565b61313c565b612ad1565b9050919050565b6000819050919050565b61353b83613506565b61354f61354782613528565b8484546134b4565b825550505050565b600090565b613564613557565b61356f818484613532565b505050565b5b818110156135935761358860008261355c565b600181019050613575565b5050565b601f8211156135d8576135a981613482565b6135b284613497565b810160208510156135c1578190505b6135d56135cd85613497565b830182613574565b50505b505050565b600082821c905092915050565b60006135fb600019846008026135dd565b1980831691505092915050565b600061361483836135ea565b9150826002028217905092915050565b61362d82612a1f565b67ffffffffffffffff81111561364657613645612c83565b5b613650825461308d565b61365b828285613597565b600060209050601f83116001811461368e576000841561367c578287015190505b6136868582613608565b8655506136ee565b601f19841661369c86613482565b60005b828110156136c45784890151825560018201915060208501945060208101905061369f565b868310156136e157848901516136dd601f8916826135ea565b8355505b6001600288020188555050505b505050505050565b600061370182612ad1565b915061370c83612ad1565b9250828203905081811115613724576137236132f9565b5b92915050565b7f4e487b7100000000000000000000000000000000000000000000000000000000600052603160045260246000fdfea264697066735822122092012c78dbf3495a46ff6e620f967827009b91211aa138407726fcea4c45a1d764736f6c63430008140033",
  "linkReferences": {},
  "deployedLinkReferences": {}
}