{
  "_format": "hh-sol-artifact-1",
  "contractName": "SoulFactory",
  "sourceName": "contracts/SoulFactory.sol",
  "abi": [
    {
      "inputs": [],
      "stateMutability": "nonpayable",
      "type": "constructor"
    },
    {
      "inputs": [
        {
          "internalType": "string",
          "name": "_stageName",
          "type": "string"
        }
      ],
      "name": "createSoul",
      "outputs": [],
      "stateMutability": "nonpayable",
      "type": "function"
    },
    {
      "inputs": [
        {
          "internalType": "contract Soul",
          "name": "_soulAddress",
          "type": "address"
        }
      ],
      "name": "getSoulByAddress",
      "outputs": [
        {
          "internalType": "string",
          "name": "",
          "type": "string"
        }
      ],
      "stateMutability": "view",
      "type": "function"
    },
    {
      "inputs": [
        {
          "internalType": "string",
          "name": "_stageName",
          "type": "string"
        }
      ],
      "name": "getSoulByStageName",
      "outputs": [
        {
          "internalType": "contract Soul",
          "name": "",
          "type": "address"
        }
      ],
      "stateMutability": "view",
      "type": "function"
    },
    {
      "inputs": [],
      "name": "getSouls",
      "outputs": [
        {
          "components": [
            {
              "internalType": "string",
              "name": "name",
              "type": "string"
            },
            {
              "internalType": "contract Soul",
              "name": "addr",
              "type": "address"
            }
          ],
          "internalType": "struct SoulFactory.soulStruct[]",
          "name": "",
          "type": "tuple[]"
        }
      ],
      "stateMutability": "view",
      "type": "function"
    },
    {
      "inputs": [
        {
          "internalType": "string",
          "name": "",
          "type": "string"
        }
      ],
      "name": "souls",
      "outputs": [
        {
          "internalType": "contract Soul",
          "name": "",
          "type": "address"
        }
      ],
      "stateMutability": "view",
      "type": "function"
    },
    {
      "inputs": [
        {
          "internalType": "contract Soul",
          "name": "",
          "type": "address"
        }
      ],
      "name": "soulsAddresses",
      "outputs": [
        {
          "internalType": "string",
          "name": "",
          "type": "string"
        }
      ],
      "stateMutability": "view",
      "type": "function"
    },
    {
      "inputs": [
        {
          "internalType": "uint256",
          "name": "",
          "type": "uint256"
        }
      ],
      "name": "stageNames",
      "outputs": [
        {
          "internalType": "string",
          "name": "",
          "type": "string"
        }
      ],
      "stateMutability": "view",
      "type": "function"
    }
  ],
  "bytecode": "0x608060405234801561001057600080fd5b506124d3806100206000396000f3fe60806040523480156200001157600080fd5b5060043610620000885760003560e01c80633be06d2111620000635780633be06d21146200012f5780638641ec1d146200014f578063dea04fe81462000171578063ed5f70ec14620001a75762000088565b806303fd0168146200008d5780631a40b87614620000c35780633669f39d14620000f9575b600080fd5b620000ab6004803603810190620000a591906200093a565b620001dd565b604051620000ba919062000a06565b60405180910390f35b620000e16004803603810190620000db919062000b7b565b620002b6565b604051620000f0919062000c37565b60405180910390f35b6200011760048036038101906200011191906200093a565b62000300565b60405162000126919062000a06565b60405180910390f35b6200014d600480360381019062000147919062000b7b565b620003a8565b005b6200015962000580565b60405162000168919062000dc8565b60405180910390f35b6200018f600480360381019062000189919062000b7b565b62000771565b6040516200019e919062000c37565b60405180910390f35b620001c56004803603810190620001bf919062000e27565b620007ba565b604051620001d4919062000a06565b60405180910390f35b6060600260008373ffffffffffffffffffffffffffffffffffffffff1673ffffffffffffffffffffffffffffffffffffffff16815260200190815260200160002080546200022b9062000e88565b80601f0160208091040260200160405190810160405280929190818152602001828054620002599062000e88565b8015620002aa5780601f106200027e57610100808354040283529160200191620002aa565b820191906000526020600020905b8154815290600101906020018083116200028c57829003601f168201915b50505050509050919050565b6000600182604051620002ca919062000eff565b908152602001604051809103902060009054906101000a900473ffffffffffffffffffffffffffffffffffffffff169050919050565b60026020528060005260406000206000915090508054620003219062000e88565b80601f01602080910402602001604051908101604052809291908181526020018280546200034f9062000e88565b8015620003a05780601f106200037457610100808354040283529160200191620003a0565b820191906000526020600020905b8154815290600101906020018083116200038257829003601f168201915b505050505081565b600073ffffffffffffffffffffffffffffffffffffffff16600182604051620003d2919062000eff565b908152602001604051809103902060009054906101000a900473ffffffffffffffffffffffffffffffffffffffff1673ffffffffffffffffffffffffffffffffffffffff16146200045a576040517f08c379a0000000000000000000000000000000000000000000000000000000008152600401620004519062000f68565b60405180910390fd5b60008190806001815401808255809150506001900390600052602060002001600090919091909150908162000490919062001152565b50600081604051620004a2906200086f565b620004ae919062000a06565b604051809103906000f080158015620004cb573d6000803e3d6000fd5b50905080600183604051620004e1919062000eff565b908152602001604051809103902060006101000a81548173ffffffffffffffffffffffffffffffffffffffff021916908373ffffffffffffffffffffffffffffffffffffffff16021790555081600260008373ffffffffffffffffffffffffffffffffffffffff1673ffffffffffffffffffffffffffffffffffffffff16815260200190815260200160002090816200057b919062001152565b505050565b60606000808054905067ffffffffffffffff811115620005a557620005a462000a34565b5b604051908082528060200260200182016040528015620005e257816020015b620005ce6200087d565b815260200190600190039081620005c45790505b50905060005b600080549050811015620007695760405180604001604052806000838154811062000618576200061762001239565b5b9060005260206000200180546200062f9062000e88565b80601f01602080910402602001604051908101604052809291908181526020018280546200065d9062000e88565b8015620006ae5780601f106200068257610100808354040283529160200191620006ae565b820191906000526020600020905b8154815290600101906020018083116200069057829003601f168201915b50505050508152602001600160008481548110620006d157620006d062001239565b5b90600052602060002001604051620006ea9190620012f7565b908152602001604051809103902060009054906101000a900473ffffffffffffffffffffffffffffffffffffffff1673ffffffffffffffffffffffffffffffffffffffff1681525082828151811062000748576200074762001239565b5b6020026020010181905250808062000760906200133f565b915050620005e8565b508091505090565b6001818051602081018201805184825260208301602085012081835280955050505050506000915054906101000a900473ffffffffffffffffffffffffffffffffffffffff1681565b60008181548110620007cb57600080fd5b906000526020600020016000915090508054620007e89062000e88565b80601f0160208091040260200160405190810160405280929190818152602001828054620008169062000e88565b8015620008675780601f106200083b5761010080835404028352916020019162000867565b820191906000526020600020905b8154815290600101906020018083116200084957829003601f168201915b505050505081565b611111806200138d83390190565b604051806040016040528060608152602001600073ffffffffffffffffffffffffffffffffffffffff1681525090565b6000604051905090565b600080fd5b600080fd5b600073ffffffffffffffffffffffffffffffffffffffff82169050919050565b6000620008ee82620008c1565b9050919050565b60006200090282620008e1565b9050919050565b6200091481620008f5565b81146200092057600080fd5b50565b600081359050620009348162000909565b92915050565b600060208284031215620009535762000952620008b7565b5b6000620009638482850162000923565b91505092915050565b600081519050919050565b600082825260208201905092915050565b60005b83811015620009a85780820151818401526020810190506200098b565b60008484015250505050565b6000601f19601f8301169050919050565b6000620009d2826200096c565b620009de818562000977565b9350620009f081856020860162000988565b620009fb81620009b4565b840191505092915050565b6000602082019050818103600083015262000a228184620009c5565b905092915050565b600080fd5b600080fd5b7f4e487b7100000000000000000000000000000000000000000000000000000000600052604160045260246000fd5b62000a6e82620009b4565b810181811067ffffffffffffffff8211171562000a905762000a8f62000a34565b5b80604052505050565b600062000aa5620008ad565b905062000ab3828262000a63565b919050565b600067ffffffffffffffff82111562000ad65762000ad562000a34565b5b62000ae182620009b4565b9050602081019050919050565b82818337600083830152505050565b600062000b1462000b0e8462000ab8565b62000a99565b90508281526020810184848401111562000b335762000b3262000a2f565b5b62000b4084828562000aee565b509392505050565b600082601f83011262000b605762000b5f62000a2a565b5b813562000b7284826020860162000afd565b91505092915050565b60006020828403121562000b945762000b93620008b7565b5b600082013567ffffffffffffffff81111562000bb55762000bb4620008bc565b5b62000bc38482850162000b48565b91505092915050565b6000819050919050565b600062000bf762000bf162000beb84620008c1565b62000bcc565b620008c1565b9050919050565b600062000c0b8262000bd6565b9050919050565b600062000c1f8262000bfe565b9050919050565b62000c318162000c12565b82525050565b600060208201905062000c4e600083018462000c26565b92915050565b600081519050919050565b600082825260208201905092915050565b6000819050602082019050919050565b600082825260208201905092915050565b600062000c9e826200096c565b62000caa818562000c80565b935062000cbc81856020860162000988565b62000cc781620009b4565b840191505092915050565b62000cdd8162000c12565b82525050565b6000604083016000830151848203600086015262000d02828262000c91565b915050602083015162000d19602086018262000cd2565b508091505092915050565b600062000d32838362000ce3565b905092915050565b6000602082019050919050565b600062000d548262000c54565b62000d60818562000c5f565b93508360208202850162000d748562000c70565b8060005b8581101562000db6578484038952815162000d94858262000d24565b945062000da18362000d3a565b925060208a0199505060018101905062000d78565b50829750879550505050505092915050565b6000602082019050818103600083015262000de4818462000d47565b905092915050565b6000819050919050565b62000e018162000dec565b811462000e0d57600080fd5b50565b60008135905062000e218162000df6565b92915050565b60006020828403121562000e405762000e3f620008b7565b5b600062000e508482850162000e10565b91505092915050565b7f4e487b7100000000000000000000000000000000000000000000000000000000600052602260045260246000fd5b6000600282049050600182168062000ea157607f821691505b60208210810362000eb75762000eb662000e59565b5b50919050565b600081905092915050565b600062000ed5826200096c565b62000ee1818562000ebd565b935062000ef381856020860162000988565b80840191505092915050565b600062000f0d828462000ec8565b915081905092915050565b7f536f756c20616c72656164792065786973747300000000000000000000000000600082015250565b600062000f5060138362000977565b915062000f5d8262000f18565b602082019050919050565b6000602082019050818103600083015262000f838162000f41565b9050919050565b60008190508160005260206000209050919050565b60006020601f8301049050919050565b600082821b905092915050565b60006008830262000fee7fffffffffffffffffffffffffffffffffffffffffffffffffffffffffffffffff8262000faf565b62000ffa868362000faf565b95508019841693508086168417925050509392505050565b6000620010336200102d620010278462000dec565b62000bcc565b62000dec565b9050919050565b6000819050919050565b6200104f8362001012565b620010676200105e826200103a565b84845462000fbc565b825550505050565b600090565b6200107e6200106f565b6200108b81848462001044565b505050565b5b81811015620010b357620010a760008262001074565b60018101905062001091565b5050565b601f8211156200110257620010cc8162000f8a565b620010d78462000f9f565b81016020851015620010e7578190505b620010ff620010f68562000f9f565b83018262001090565b50505b505050565b600082821c905092915050565b6000620011276000198460080262001107565b1980831691505092915050565b600062001142838362001114565b9150826002028217905092915050565b6200115d826200096c565b67ffffffffffffffff81111562001179576200117862000a34565b5b62001185825462000e88565b62001192828285620010b7565b600060209050601f831160018114620011ca5760008415620011b5578287015190505b620011c1858262001134565b86555062001231565b601f198416620011da8662000f8a565b60005b828110156200120457848901518255600182019150602085019450602081019050620011dd565b8683101562001224578489015162001220601f89168262001114565b8355505b6001600288020188555050505b505050505050565b7f4e487b7100000000000000000000000000000000000000000000000000000000600052603260045260246000fd5b60008154620012778162000e88565b62001283818662000ebd565b94506001821660008114620012a15760018114620012b757620012ee565b60ff1983168652811515820286019350620012ee565b620012c28562000f8a565b60005b83811015620012e657815481890152600182019150602081019050620012c5565b838801955050505b50505092915050565b600062001305828462001268565b915081905092915050565b7f4e487b7100000000000000000000000000000000000000000000000000000000600052601160045260246000fd5b60006200134c8262000dec565b91507fffffffffffffffffffffffffffffffffffffffffffffffffffffffffffffffff820362001381576200138062001310565b5b60018201905091905056fe60806040523480156200001157600080fd5b506040516200111138038062001111833981810160405281019062000037919062000224565b8060039081620000489190620004c0565b5033600160006101000a81548173ffffffffffffffffffffffffffffffffffffffff021916908373ffffffffffffffffffffffffffffffffffffffff16021790555050620005a7565b6000604051905090565b600080fd5b600080fd5b600080fd5b600080fd5b6000601f19601f8301169050919050565b7f4e487b7100000000000000000000000000000000000000000000000000000000600052604160045260246000fd5b620000fa82620000af565b810181811067ffffffffffffffff821117156200011c576200011b620000c0565b5b80604052505050565b60006200013162000091565b90506200013f8282620000ef565b919050565b600067ffffffffffffffff821115620001625762000161620000c0565b5b6200016d82620000af565b9050602081019050919050565b60005b838110156200019a5780820151818401526020810190506200017d565b60008484015250505050565b6000620001bd620001b78462000144565b62000125565b905082815260208101848484011115620001dc57620001db620000aa565b5b620001e98482856200017a565b509392505050565b600082601f830112620002095762000208620000a5565b5b81516200021b848260208601620001a6565b91505092915050565b6000602082840312156200023d576200023c6200009b565b5b600082015167ffffffffffffffff8111156200025e576200025d620000a0565b5b6200026c84828501620001f1565b91505092915050565b600081519050919050565b7f4e487b7100000000000000000000000000000000000000000000000000000000600052602260045260246000fd5b60006002820490506001821680620002c857607f821691505b602082108103620002de57620002dd62000280565b5b50919050565b60008190508160005260206000209050919050565b60006020601f8301049050919050565b600082821b905092915050565b600060088302620003487fffffffffffffffffffffffffffffffffffffffffffffffffffffffffffffffff8262000309565b62000354868362000309565b95508019841693508086168417925050509392505050565b6000819050919050565b6000819050919050565b6000620003a16200039b62000395846200036c565b62000376565b6200036c565b9050919050565b6000819050919050565b620003bd8362000380565b620003d5620003cc82620003a8565b84845462000316565b825550505050565b600090565b620003ec620003dd565b620003f9818484620003b2565b505050565b5b81811015620004215762000415600082620003e2565b600181019050620003ff565b5050565b601f82111562000470576200043a81620002e4565b6200044584620002f9565b8101602085101562000455578190505b6200046d6200046485620002f9565b830182620003fe565b50505b505050565b600082821c905092915050565b6000620004956000198460080262000475565b1980831691505092915050565b6000620004b0838362000482565b9150826002028217905092915050565b620004cb8262000275565b67ffffffffffffffff811115620004e757620004e6620000c0565b5b620004f38254620002af565b6200050082828562000425565b600060209050601f83116001811462000538576000841562000523578287015190505b6200052f8582620004a2565b8655506200059f565b601f1984166200054886620002e4565b60005b8281101562000572578489015182556001820191506020850194506020810190506200054b565b868310156200059257848901516200058e601f89168262000482565b8355505b6001600288020188555050505b505050505050565b610b5a80620005b76000396000f3fe608060405234801561001057600080fd5b506004361061007d5760003560e01c80638da5cb5b1161005b5780638da5cb5b146100da5780639d87916a146100f8578063b3af0dc614610114578063f2a40db8146101325761007d565b806306fdde03146100825780633bd64592146100a05780636e47a282146100be575b600080fd5b61008a610162565b604051610097919061050e565b60405180910390f35b6100a86101f0565b6040516100b5919061050e565b60405180910390f35b6100d860048036038101906100d39190610679565b61027e565b005b6100e2610321565b6040516100ef9190610703565b60405180910390f35b610112600480360381019061010d919061074a565b610347565b005b61011c6103ad565b604051610129919061050e565b60405180910390f35b61014c600480360381019061014791906107ad565b61043f565b6040516101599190610703565b60405180910390f35b6003805461016f90610809565b80601f016020809104026020016040519081016040528092919081815260200182805461019b90610809565b80156101e85780601f106101bd576101008083540402835291602001916101e8565b820191906000526020600020905b8154815290600101906020018083116101cb57829003601f168201915b505050505081565b600280546101fd90610809565b80601f016020809104026020016040519081016040528092919081815260200182805461022990610809565b80156102765780601f1061024b57610100808354040283529160200191610276565b820191906000526020600020905b81548152906001019060200180831161025957829003601f168201915b505050505081565b3373ffffffffffffffffffffffffffffffffffffffff16600160009054906101000a900473ffffffffffffffffffffffffffffffffffffffff1673ffffffffffffffffffffffffffffffffffffffff160361030e576040517f08c379a000000000000000000000000000000000000000000000000000000000815260040161030590610886565b60405180910390fd5b806002908161031d9190610a52565b5050565b600160009054906101000a900473ffffffffffffffffffffffffffffffffffffffff1681565b6000819080600181540180825580915050600190039060005260206000200160009091909190916101000a81548173ffffffffffffffffffffffffffffffffffffffff021916908373ffffffffffffffffffffffffffffffffffffffff16021790555050565b6060600280546103bc90610809565b80601f01602080910402602001604051908101604052809291908181526020018280546103e890610809565b80156104355780601f1061040a57610100808354040283529160200191610435565b820191906000526020600020905b81548152906001019060200180831161041857829003601f168201915b5050505050905090565b6000818154811061044f57600080fd5b906000526020600020016000915054906101000a900473ffffffffffffffffffffffffffffffffffffffff1681565b600081519050919050565b600082825260208201905092915050565b60005b838110156104b857808201518184015260208101905061049d565b60008484015250505050565b6000601f19601f8301169050919050565b60006104e08261047e565b6104ea8185610489565b93506104fa81856020860161049a565b610503816104c4565b840191505092915050565b6000602082019050818103600083015261052881846104d5565b905092915050565b6000604051905090565b600080fd5b600080fd5b600080fd5b600080fd5b7f4e487b7100000000000000000000000000000000000000000000000000000000600052604160045260246000fd5b610586826104c4565b810181811067ffffffffffffffff821117156105a5576105a461054e565b5b80604052505050565b60006105b8610530565b90506105c4828261057d565b919050565b600067ffffffffffffffff8211156105e4576105e361054e565b5b6105ed826104c4565b9050602081019050919050565b82818337600083830152505050565b600061061c610617846105c9565b6105ae565b90508281526020810184848401111561063857610637610549565b5b6106438482856105fa565b509392505050565b600082601f8301126106605761065f610544565b5b8135610670848260208601610609565b91505092915050565b60006020828403121561068f5761068e61053a565b5b600082013567ffffffffffffffff8111156106ad576106ac61053f565b5b6106b98482850161064b565b91505092915050565b600073ffffffffffffffffffffffffffffffffffffffff82169050919050565b60006106ed826106c2565b9050919050565b6106fd816106e2565b82525050565b600060208201905061071860008301846106f4565b92915050565b610727816106e2565b811461073257600080fd5b50565b6000813590506107448161071e565b92915050565b6000602082840312156107605761075f61053a565b5b600061076e84828501610735565b91505092915050565b6000819050919050565b61078a81610777565b811461079557600080fd5b50565b6000813590506107a781610781565b92915050565b6000602082840312156107c3576107c261053a565b5b60006107d184828501610798565b91505092915050565b7f4e487b7100000000000000000000000000000000000000000000000000000000600052602260045260246000fd5b6000600282049050600182168061082157607f821691505b602082108103610834576108336107da565b5b50919050565b7f4f6e6c79206f776e65722075706461746520617661746f720000000000000000600082015250565b6000610870601883610489565b915061087b8261083a565b602082019050919050565b6000602082019050818103600083015261089f81610863565b9050919050565b60008190508160005260206000209050919050565b60006020601f8301049050919050565b600082821b905092915050565b6000600883026109087fffffffffffffffffffffffffffffffffffffffffffffffffffffffffffffffff826108cb565b61091286836108cb565b95508019841693508086168417925050509392505050565b6000819050919050565b600061094f61094a61094584610777565b61092a565b610777565b9050919050565b6000819050919050565b61096983610934565b61097d61097582610956565b8484546108d8565b825550505050565b600090565b610992610985565b61099d818484610960565b505050565b5b818110156109c1576109b660008261098a565b6001810190506109a3565b5050565b601f821115610a06576109d7816108a6565b6109e0846108bb565b810160208510156109ef578190505b610a036109fb856108bb565b8301826109a2565b50505b505050565b600082821c905092915050565b6000610a2960001984600802610a0b565b1980831691505092915050565b6000610a428383610a18565b9150826002028217905092915050565b610a5b8261047e565b67ffffffffffffffff811115610a7457610a7361054e565b5b610a7e8254610809565b610a898282856109c5565b600060209050601f831160018114610abc5760008415610aaa578287015190505b610ab48582610a36565b865550610b1c565b601f198416610aca866108a6565b60005b82811015610af257848901518255600182019150602085019450602081019050610acd565b86831015610b0f5784890151610b0b601f891682610a18565b8355505b6001600288020188555050505b50505050505056fea2646970667358221220ef5dd54d4fb256516bb3b0635b93e7d7800061308a142805a764c12995a8d60364736f6c63430008140033a2646970667358221220ae23a015ac7ee511547788df424c4296643cc55d5307baf6449261bfc63855cf64736f6c63430008140033",
  "linkReferences": {},
  "deployedLinkReferences": {}
}