{
  "_format": "hh-sol-artifact-1",
  "contractName": "SoulFactory",
  "sourceName": "contracts/SoulFactory.sol",
  "abi": [
    {
      "inputs": [],
      "stateMutability": "nonpayable",
      "type": "constructor"
    },
    {
      "inputs": [
        {
          "internalType": "string",
          "name": "_stageName",
          "type": "string"
        }
      ],
      "name": "createSoul",
      "outputs": [],
      "stateMutability": "nonpayable",
      "type": "function"
    },
    {
      "inputs": [
        {
          "internalType": "contract Soul",
          "name": "_soulAddress",
          "type": "address"
        }
      ],
      "name": "getSoulByAddress",
      "outputs": [
        {
          "internalType": "string",
          "name": "",
          "type": "string"
        }
      ],
      "stateMutability": "view",
      "type": "function"
    },
    {
      "inputs": [
        {
          "internalType": "string",
          "name": "_stageName",
          "type": "string"
        }
      ],
      "name": "getSoulByStageName",
      "outputs": [
        {
          "internalType": "contract Soul",
          "name": "",
          "type": "address"
        }
      ],
      "stateMutability": "view",
      "type": "function"
    },
    {
      "inputs": [],
      "name": "getSouls",
      "outputs": [
        {
          "components": [
            {
              "internalType": "string",
              "name": "name",
              "type": "string"
            },
            {
              "internalType": "contract Soul",
              "name": "addr",
              "type": "address"
            }
          ],
          "internalType": "struct SoulFactory.soulStruct[]",
          "name": "",
          "type": "tuple[]"
        }
      ],
      "stateMutability": "view",
      "type": "function"
    },
    {
      "inputs": [
        {
          "internalType": "string",
          "name": "",
          "type": "string"
        }
      ],
      "name": "souls",
      "outputs": [
        {
          "internalType": "contract Soul",
          "name": "",
          "type": "address"
        }
      ],
      "stateMutability": "view",
      "type": "function"
    },
    {
      "inputs": [
        {
          "internalType": "contract Soul",
          "name": "",
          "type": "address"
        }
      ],
      "name": "soulsAddresses",
      "outputs": [
        {
          "internalType": "string",
          "name": "",
          "type": "string"
        }
      ],
      "stateMutability": "view",
      "type": "function"
    },
    {
      "inputs": [
        {
          "internalType": "uint256",
          "name": "",
          "type": "uint256"
        }
      ],
      "name": "stageNames",
      "outputs": [
        {
          "internalType": "string",
          "name": "",
          "type": "string"
        }
      ],
      "stateMutability": "view",
      "type": "function"
    }
  ],
  "bytecode": "0x608060405234801561001057600080fd5b50611d80806100206000396000f3fe60806040523480156200001157600080fd5b5060043610620000885760003560e01c80633be06d2111620000635780633be06d21146200012f5780638641ec1d146200014f578063dea04fe81462000171578063ed5f70ec14620001a75762000088565b806303fd0168146200008d5780631a40b87614620000c35780633669f39d14620000f9575b600080fd5b620000ab6004803603810190620000a591906200093a565b620001dd565b604051620000ba919062000a06565b60405180910390f35b620000e16004803603810190620000db919062000b7b565b620002b6565b604051620000f0919062000c37565b60405180910390f35b6200011760048036038101906200011191906200093a565b62000300565b60405162000126919062000a06565b60405180910390f35b6200014d600480360381019062000147919062000b7b565b620003a8565b005b6200015962000580565b60405162000168919062000dc8565b60405180910390f35b6200018f600480360381019062000189919062000b7b565b62000771565b6040516200019e919062000c37565b60405180910390f35b620001c56004803603810190620001bf919062000e27565b620007ba565b604051620001d4919062000a06565b60405180910390f35b6060600260008373ffffffffffffffffffffffffffffffffffffffff1673ffffffffffffffffffffffffffffffffffffffff16815260200190815260200160002080546200022b9062000e88565b80601f0160208091040260200160405190810160405280929190818152602001828054620002599062000e88565b8015620002aa5780601f106200027e57610100808354040283529160200191620002aa565b820191906000526020600020905b8154815290600101906020018083116200028c57829003601f168201915b50505050509050919050565b6000600182604051620002ca919062000eff565b908152602001604051809103902060009054906101000a900473ffffffffffffffffffffffffffffffffffffffff169050919050565b60026020528060005260406000206000915090508054620003219062000e88565b80601f01602080910402602001604051908101604052809291908181526020018280546200034f9062000e88565b8015620003a05780601f106200037457610100808354040283529160200191620003a0565b820191906000526020600020905b8154815290600101906020018083116200038257829003601f168201915b505050505081565b600073ffffffffffffffffffffffffffffffffffffffff16600182604051620003d2919062000eff565b908152602001604051809103902060009054906101000a900473ffffffffffffffffffffffffffffffffffffffff1673ffffffffffffffffffffffffffffffffffffffff16146200045a576040517f08c379a0000000000000000000000000000000000000000000000000000000008152600401620004519062000f68565b60405180910390fd5b60008190806001815401808255809150506001900390600052602060002001600090919091909150908162000490919062001152565b50600081604051620004a2906200086f565b620004ae919062000a06565b604051809103906000f080158015620004cb573d6000803e3d6000fd5b50905080600183604051620004e1919062000eff565b908152602001604051809103902060006101000a81548173ffffffffffffffffffffffffffffffffffffffff021916908373ffffffffffffffffffffffffffffffffffffffff16021790555081600260008373ffffffffffffffffffffffffffffffffffffffff1673ffffffffffffffffffffffffffffffffffffffff16815260200190815260200160002090816200057b919062001152565b505050565b60606000808054905067ffffffffffffffff811115620005a557620005a462000a34565b5b604051908082528060200260200182016040528015620005e257816020015b620005ce6200087d565b815260200190600190039081620005c45790505b50905060005b600080549050811015620007695760405180604001604052806000838154811062000618576200061762001239565b5b9060005260206000200180546200062f9062000e88565b80601f01602080910402602001604051908101604052809291908181526020018280546200065d9062000e88565b8015620006ae5780601f106200068257610100808354040283529160200191620006ae565b820191906000526020600020905b8154815290600101906020018083116200069057829003601f168201915b50505050508152602001600160008481548110620006d157620006d062001239565b5b90600052602060002001604051620006ea9190620012f7565b908152602001604051809103902060009054906101000a900473ffffffffffffffffffffffffffffffffffffffff1673ffffffffffffffffffffffffffffffffffffffff1681525082828151811062000748576200074762001239565b5b6020026020010181905250808062000760906200133f565b915050620005e8565b508091505090565b6001818051602081018201805184825260208301602085012081835280955050505050506000915054906101000a900473ffffffffffffffffffffffffffffffffffffffff1681565b60008181548110620007cb57600080fd5b906000526020600020016000915090508054620007e89062000e88565b80601f0160208091040260200160405190810160405280929190818152602001828054620008169062000e88565b8015620008675780601f106200083b5761010080835404028352916020019162000867565b820191906000526020600020905b8154815290600101906020018083116200084957829003601f168201915b505050505081565b6109be806200138d83390190565b604051806040016040528060608152602001600073ffffffffffffffffffffffffffffffffffffffff1681525090565b6000604051905090565b600080fd5b600080fd5b600073ffffffffffffffffffffffffffffffffffffffff82169050919050565b6000620008ee82620008c1565b9050919050565b60006200090282620008e1565b9050919050565b6200091481620008f5565b81146200092057600080fd5b50565b600081359050620009348162000909565b92915050565b600060208284031215620009535762000952620008b7565b5b6000620009638482850162000923565b91505092915050565b600081519050919050565b600082825260208201905092915050565b60005b83811015620009a85780820151818401526020810190506200098b565b60008484015250505050565b6000601f19601f8301169050919050565b6000620009d2826200096c565b620009de818562000977565b9350620009f081856020860162000988565b620009fb81620009b4565b840191505092915050565b6000602082019050818103600083015262000a228184620009c5565b905092915050565b600080fd5b600080fd5b7f4e487b7100000000000000000000000000000000000000000000000000000000600052604160045260246000fd5b62000a6e82620009b4565b810181811067ffffffffffffffff8211171562000a905762000a8f62000a34565b5b80604052505050565b600062000aa5620008ad565b905062000ab3828262000a63565b919050565b600067ffffffffffffffff82111562000ad65762000ad562000a34565b5b62000ae182620009b4565b9050602081019050919050565b82818337600083830152505050565b600062000b1462000b0e8462000ab8565b62000a99565b90508281526020810184848401111562000b335762000b3262000a2f565b5b62000b4084828562000aee565b509392505050565b600082601f83011262000b605762000b5f62000a2a565b5b813562000b7284826020860162000afd565b91505092915050565b60006020828403121562000b945762000b93620008b7565b5b600082013567ffffffffffffffff81111562000bb55762000bb4620008bc565b5b62000bc38482850162000b48565b91505092915050565b6000819050919050565b600062000bf762000bf162000beb84620008c1565b62000bcc565b620008c1565b9050919050565b600062000c0b8262000bd6565b9050919050565b600062000c1f8262000bfe565b9050919050565b62000c318162000c12565b82525050565b600060208201905062000c4e600083018462000c26565b92915050565b600081519050919050565b600082825260208201905092915050565b6000819050602082019050919050565b600082825260208201905092915050565b600062000c9e826200096c565b62000caa818562000c80565b935062000cbc81856020860162000988565b62000cc781620009b4565b840191505092915050565b62000cdd8162000c12565b82525050565b6000604083016000830151848203600086015262000d02828262000c91565b915050602083015162000d19602086018262000cd2565b508091505092915050565b600062000d32838362000ce3565b905092915050565b6000602082019050919050565b600062000d548262000c54565b62000d60818562000c5f565b93508360208202850162000d748562000c70565b8060005b8581101562000db6578484038952815162000d94858262000d24565b945062000da18362000d3a565b925060208a0199505060018101905062000d78565b50829750879550505050505092915050565b6000602082019050818103600083015262000de4818462000d47565b905092915050565b6000819050919050565b62000e018162000dec565b811462000e0d57600080fd5b50565b60008135905062000e218162000df6565b92915050565b60006020828403121562000e405762000e3f620008b7565b5b600062000e508482850162000e10565b91505092915050565b7f4e487b7100000000000000000000000000000000000000000000000000000000600052602260045260246000fd5b6000600282049050600182168062000ea157607f821691505b60208210810362000eb75762000eb662000e59565b5b50919050565b600081905092915050565b600062000ed5826200096c565b62000ee1818562000ebd565b935062000ef381856020860162000988565b80840191505092915050565b600062000f0d828462000ec8565b915081905092915050565b7f536f756c20616c72656164792065786973747300000000000000000000000000600082015250565b600062000f5060138362000977565b915062000f5d8262000f18565b602082019050919050565b6000602082019050818103600083015262000f838162000f41565b9050919050565b60008190508160005260206000209050919050565b60006020601f8301049050919050565b600082821b905092915050565b60006008830262000fee7fffffffffffffffffffffffffffffffffffffffffffffffffffffffffffffffff8262000faf565b62000ffa868362000faf565b95508019841693508086168417925050509392505050565b6000620010336200102d620010278462000dec565b62000bcc565b62000dec565b9050919050565b6000819050919050565b6200104f8362001012565b620010676200105e826200103a565b84845462000fbc565b825550505050565b600090565b6200107e6200106f565b6200108b81848462001044565b505050565b5b81811015620010b357620010a760008262001074565b60018101905062001091565b5050565b601f8211156200110257620010cc8162000f8a565b620010d78462000f9f565b81016020851015620010e7578190505b620010ff620010f68562000f9f565b83018262001090565b50505b505050565b600082821c905092915050565b6000620011276000198460080262001107565b1980831691505092915050565b600062001142838362001114565b9150826002028217905092915050565b6200115d826200096c565b67ffffffffffffffff81111562001179576200117862000a34565b5b62001185825462000e88565b62001192828285620010b7565b600060209050601f831160018114620011ca5760008415620011b5578287015190505b620011c1858262001134565b86555062001231565b601f198416620011da8662000f8a565b60005b828110156200120457848901518255600182019150602085019450602081019050620011dd565b8683101562001224578489015162001220601f89168262001114565b8355505b6001600288020188555050505b505050505050565b7f4e487b7100000000000000000000000000000000000000000000000000000000600052603260045260246000fd5b60008154620012778162000e88565b62001283818662000ebd565b94506001821660008114620012a15760018114620012b757620012ee565b60ff1983168652811515820286019350620012ee565b620012c28562000f8a565b60005b83811015620012e657815481890152600182019150602081019050620012c5565b838801955050505b50505092915050565b600062001305828462001268565b915081905092915050565b7f4e487b7100000000000000000000000000000000000000000000000000000000600052601160045260246000fd5b60006200134c8262000dec565b91507fffffffffffffffffffffffffffffffffffffffffffffffffffffffffffffffff820362001381576200138062001310565b5b60018201905091905056fe60806040523480156200001157600080fd5b50604051620009be380380620009be8339818101604052810190620000379190620001e3565b80600190816200004891906200047f565b505062000566565b6000604051905090565b600080fd5b600080fd5b600080fd5b600080fd5b6000601f19601f8301169050919050565b7f4e487b7100000000000000000000000000000000000000000000000000000000600052604160045260246000fd5b620000b9826200006e565b810181811067ffffffffffffffff82111715620000db57620000da6200007f565b5b80604052505050565b6000620000f062000050565b9050620000fe8282620000ae565b919050565b600067ffffffffffffffff8211156200012157620001206200007f565b5b6200012c826200006e565b9050602081019050919050565b60005b83811015620001595780820151818401526020810190506200013c565b60008484015250505050565b60006200017c620001768462000103565b620000e4565b9050828152602081018484840111156200019b576200019a62000069565b5b620001a884828562000139565b509392505050565b600082601f830112620001c857620001c762000064565b5b8151620001da84826020860162000165565b91505092915050565b600060208284031215620001fc57620001fb6200005a565b5b600082015167ffffffffffffffff8111156200021d576200021c6200005f565b5b6200022b84828501620001b0565b91505092915050565b600081519050919050565b7f4e487b7100000000000000000000000000000000000000000000000000000000600052602260045260246000fd5b600060028204905060018216806200028757607f821691505b6020821081036200029d576200029c6200023f565b5b50919050565b60008190508160005260206000209050919050565b60006020601f8301049050919050565b600082821b905092915050565b600060088302620003077fffffffffffffffffffffffffffffffffffffffffffffffffffffffffffffffff82620002c8565b620003138683620002c8565b95508019841693508086168417925050509392505050565b6000819050919050565b6000819050919050565b6000620003606200035a62000354846200032b565b62000335565b6200032b565b9050919050565b6000819050919050565b6200037c836200033f565b620003946200038b8262000367565b848454620002d5565b825550505050565b600090565b620003ab6200039c565b620003b881848462000371565b505050565b5b81811015620003e057620003d4600082620003a1565b600181019050620003be565b5050565b601f8211156200042f57620003f981620002a3565b6200040484620002b8565b8101602085101562000414578190505b6200042c6200042385620002b8565b830182620003bd565b50505b505050565b600082821c905092915050565b6000620004546000198460080262000434565b1980831691505092915050565b60006200046f838362000441565b9150826002028217905092915050565b6200048a8262000234565b67ffffffffffffffff811115620004a657620004a56200007f565b5b620004b282546200026e565b620004bf828285620003e4565b600060209050601f831160018114620004f75760008415620004e2578287015190505b620004ee858262000461565b8655506200055e565b601f1984166200050786620002a3565b60005b8281101562000531578489015182556001820191506020850194506020810190506200050a565b868310156200055157848901516200054d601f89168262000441565b8355505b6001600288020188555050505b505050505050565b61044880620005766000396000f3fe608060405234801561001057600080fd5b50600436106100415760003560e01c806306fdde03146100465780639d87916a14610064578063f2a40db814610080575b600080fd5b61004e6100b0565b60405161005b9190610273565b60405180910390f35b61007e600480360381019061007991906102f8565b61013e565b005b61009a6004803603810190610095919061035b565b6101a4565b6040516100a79190610397565b60405180910390f35b600180546100bd906103e1565b80601f01602080910402602001604051908101604052809291908181526020018280546100e9906103e1565b80156101365780601f1061010b57610100808354040283529160200191610136565b820191906000526020600020905b81548152906001019060200180831161011957829003601f168201915b505050505081565b6000819080600181540180825580915050600190039060005260206000200160009091909190916101000a81548173ffffffffffffffffffffffffffffffffffffffff021916908373ffffffffffffffffffffffffffffffffffffffff16021790555050565b600081815481106101b457600080fd5b906000526020600020016000915054906101000a900473ffffffffffffffffffffffffffffffffffffffff1681565b600081519050919050565b600082825260208201905092915050565b60005b8381101561021d578082015181840152602081019050610202565b60008484015250505050565b6000601f19601f8301169050919050565b6000610245826101e3565b61024f81856101ee565b935061025f8185602086016101ff565b61026881610229565b840191505092915050565b6000602082019050818103600083015261028d818461023a565b905092915050565b600080fd5b600073ffffffffffffffffffffffffffffffffffffffff82169050919050565b60006102c58261029a565b9050919050565b6102d5816102ba565b81146102e057600080fd5b50565b6000813590506102f2816102cc565b92915050565b60006020828403121561030e5761030d610295565b5b600061031c848285016102e3565b91505092915050565b6000819050919050565b61033881610325565b811461034357600080fd5b50565b6000813590506103558161032f565b92915050565b60006020828403121561037157610370610295565b5b600061037f84828501610346565b91505092915050565b610391816102ba565b82525050565b60006020820190506103ac6000830184610388565b92915050565b7f4e487b7100000000000000000000000000000000000000000000000000000000600052602260045260246000fd5b600060028204905060018216806103f957607f821691505b60208210810361040c5761040b6103b2565b5b5091905056fea26469706673582212200f4ef4f1e9252404dd8e65e1eeef6df4ad646ee01b8cb2cb282dbb7b50a0710564736f6c63430008130033a2646970667358221220816b3bce965651b80e6d1081320a43d296c4f53336d26ae06f8afc835a2caa2064736f6c63430008130033",
  "linkReferences": {},
  "deployedLinkReferences": {}
}