{
  "contracts/Soul.sol": {
    "Soul": {
      "abi": [
        {
          "inputs": [
            {
              "internalType": "string",
              "name": "_name",
              "type": "string"
            }
          ],
          "stateMutability": "nonpayable",
          "type": "constructor"
        },
        {
          "inputs": [
            {
              "internalType": "uint256",
              "name": "",
              "type": "uint256"
            }
          ],
          "name": "accounts",
          "outputs": [
            {
              "internalType": "address",
              "name": "",
              "type": "address"
            }
          ],
          "stateMutability": "view",
          "type": "function"
        },
        {
          "inputs": [
            {
              "internalType": "address",
              "name": "_accountAddress",
              "type": "address"
            }
          ],
          "name": "addNewWallet",
          "outputs": [],
          "stateMutability": "nonpayable",
          "type": "function"
        },
        {
          "inputs": [],
          "name": "avatorCid",
          "outputs": [
            {
              "internalType": "string",
              "name": "",
              "type": "string"
            }
          ],
          "stateMutability": "view",
          "type": "function"
        },
        {
          "inputs": [],
          "name": "getAvatarCid",
          "outputs": [
            {
              "internalType": "string",
              "name": "",
              "type": "string"
            }
          ],
          "stateMutability": "view",
          "type": "function"
        },
        {
          "inputs": [],
          "name": "name",
          "outputs": [
            {
              "internalType": "string",
              "name": "",
              "type": "string"
            }
          ],
          "stateMutability": "view",
          "type": "function"
        },
        {
          "inputs": [],
          "name": "owner",
          "outputs": [
            {
              "internalType": "address",
              "name": "",
              "type": "address"
            }
          ],
          "stateMutability": "view",
          "type": "function"
        },
        {
          "inputs": [
            {
              "internalType": "string",
              "name": "_cid",
              "type": "string"
            }
          ],
          "name": "updateAvatarCid",
          "outputs": [],
          "stateMutability": "nonpayable",
          "type": "function"
        }
      ],
      "evm": {
        "bytecode": {
          "linkReferences": {},
          "object": "60806040523480156200001157600080fd5b506040516200111138038062001111833981810160405281019062000037919062000224565b8060039081620000489190620004c0565b5033600160006101000a81548173ffffffffffffffffffffffffffffffffffffffff021916908373ffffffffffffffffffffffffffffffffffffffff16021790555050620005a7565b6000604051905090565b600080fd5b600080fd5b600080fd5b600080fd5b6000601f19601f8301169050919050565b7f4e487b7100000000000000000000000000000000000000000000000000000000600052604160045260246000fd5b620000fa82620000af565b810181811067ffffffffffffffff821117156200011c576200011b620000c0565b5b80604052505050565b60006200013162000091565b90506200013f8282620000ef565b919050565b600067ffffffffffffffff821115620001625762000161620000c0565b5b6200016d82620000af565b9050602081019050919050565b60005b838110156200019a5780820151818401526020810190506200017d565b60008484015250505050565b6000620001bd620001b78462000144565b62000125565b905082815260208101848484011115620001dc57620001db620000aa565b5b620001e98482856200017a565b509392505050565b600082601f830112620002095762000208620000a5565b5b81516200021b848260208601620001a6565b91505092915050565b6000602082840312156200023d576200023c6200009b565b5b600082015167ffffffffffffffff8111156200025e576200025d620000a0565b5b6200026c84828501620001f1565b91505092915050565b600081519050919050565b7f4e487b7100000000000000000000000000000000000000000000000000000000600052602260045260246000fd5b60006002820490506001821680620002c857607f821691505b602082108103620002de57620002dd62000280565b5b50919050565b60008190508160005260206000209050919050565b60006020601f8301049050919050565b600082821b905092915050565b600060088302620003487fffffffffffffffffffffffffffffffffffffffffffffffffffffffffffffffff8262000309565b62000354868362000309565b95508019841693508086168417925050509392505050565b6000819050919050565b6000819050919050565b6000620003a16200039b62000395846200036c565b62000376565b6200036c565b9050919050565b6000819050919050565b620003bd8362000380565b620003d5620003cc82620003a8565b84845462000316565b825550505050565b600090565b620003ec620003dd565b620003f9818484620003b2565b505050565b5b81811015620004215762000415600082620003e2565b600181019050620003ff565b5050565b601f82111562000470576200043a81620002e4565b6200044584620002f9565b8101602085101562000455578190505b6200046d6200046485620002f9565b830182620003fe565b50505b505050565b600082821c905092915050565b6000620004956000198460080262000475565b1980831691505092915050565b6000620004b0838362000482565b9150826002028217905092915050565b620004cb8262000275565b67ffffffffffffffff811115620004e757620004e6620000c0565b5b620004f38254620002af565b6200050082828562000425565b600060209050601f83116001811462000538576000841562000523578287015190505b6200052f8582620004a2565b8655506200059f565b601f1984166200054886620002e4565b60005b8281101562000572578489015182556001820191506020850194506020810190506200054b565b868310156200059257848901516200058e601f89168262000482565b8355505b6001600288020188555050505b505050505050565b610b5a80620005b76000396000f3fe608060405234801561001057600080fd5b506004361061007d5760003560e01c80638da5cb5b1161005b5780638da5cb5b146100da5780639d87916a146100f8578063b3af0dc614610114578063f2a40db8146101325761007d565b806306fdde03146100825780633bd64592146100a05780636e47a282146100be575b600080fd5b61008a610162565b604051610097919061050e565b60405180910390f35b6100a86101f0565b6040516100b5919061050e565b60405180910390f35b6100d860048036038101906100d39190610679565b61027e565b005b6100e2610321565b6040516100ef9190610703565b60405180910390f35b610112600480360381019061010d919061074a565b610347565b005b61011c6103ad565b604051610129919061050e565b60405180910390f35b61014c600480360381019061014791906107ad565b61043f565b6040516101599190610703565b60405180910390f35b6003805461016f90610809565b80601f016020809104026020016040519081016040528092919081815260200182805461019b90610809565b80156101e85780601f106101bd576101008083540402835291602001916101e8565b820191906000526020600020905b8154815290600101906020018083116101cb57829003601f168201915b505050505081565b600280546101fd90610809565b80601f016020809104026020016040519081016040528092919081815260200182805461022990610809565b80156102765780601f1061024b57610100808354040283529160200191610276565b820191906000526020600020905b81548152906001019060200180831161025957829003601f168201915b505050505081565b3373ffffffffffffffffffffffffffffffffffffffff16600160009054906101000a900473ffffffffffffffffffffffffffffffffffffffff1673ffffffffffffffffffffffffffffffffffffffff160361030e576040517f08c379a000000000000000000000000000000000000000000000000000000000815260040161030590610886565b60405180910390fd5b806002908161031d9190610a52565b5050565b600160009054906101000a900473ffffffffffffffffffffffffffffffffffffffff1681565b6000819080600181540180825580915050600190039060005260206000200160009091909190916101000a81548173ffffffffffffffffffffffffffffffffffffffff021916908373ffffffffffffffffffffffffffffffffffffffff16021790555050565b6060600280546103bc90610809565b80601f01602080910402602001604051908101604052809291908181526020018280546103e890610809565b80156104355780601f1061040a57610100808354040283529160200191610435565b820191906000526020600020905b81548152906001019060200180831161041857829003601f168201915b5050505050905090565b6000818154811061044f57600080fd5b906000526020600020016000915054906101000a900473ffffffffffffffffffffffffffffffffffffffff1681565b600081519050919050565b600082825260208201905092915050565b60005b838110156104b857808201518184015260208101905061049d565b60008484015250505050565b6000601f19601f8301169050919050565b60006104e08261047e565b6104ea8185610489565b93506104fa81856020860161049a565b610503816104c4565b840191505092915050565b6000602082019050818103600083015261052881846104d5565b905092915050565b6000604051905090565b600080fd5b600080fd5b600080fd5b600080fd5b7f4e487b7100000000000000000000000000000000000000000000000000000000600052604160045260246000fd5b610586826104c4565b810181811067ffffffffffffffff821117156105a5576105a461054e565b5b80604052505050565b60006105b8610530565b90506105c4828261057d565b919050565b600067ffffffffffffffff8211156105e4576105e361054e565b5b6105ed826104c4565b9050602081019050919050565b82818337600083830152505050565b600061061c610617846105c9565b6105ae565b90508281526020810184848401111561063857610637610549565b5b6106438482856105fa565b509392505050565b600082601f8301126106605761065f610544565b5b8135610670848260208601610609565b91505092915050565b60006020828403121561068f5761068e61053a565b5b600082013567ffffffffffffffff8111156106ad576106ac61053f565b5b6106b98482850161064b565b91505092915050565b600073ffffffffffffffffffffffffffffffffffffffff82169050919050565b60006106ed826106c2565b9050919050565b6106fd816106e2565b82525050565b600060208201905061071860008301846106f4565b92915050565b610727816106e2565b811461073257600080fd5b50565b6000813590506107448161071e565b92915050565b6000602082840312156107605761075f61053a565b5b600061076e84828501610735565b91505092915050565b6000819050919050565b61078a81610777565b811461079557600080fd5b50565b6000813590506107a781610781565b92915050565b6000602082840312156107c3576107c261053a565b5b60006107d184828501610798565b91505092915050565b7f4e487b7100000000000000000000000000000000000000000000000000000000600052602260045260246000fd5b6000600282049050600182168061082157607f821691505b602082108103610834576108336107da565b5b50919050565b7f4f6e6c79206f776e65722075706461746520617661746f720000000000000000600082015250565b6000610870601883610489565b915061087b8261083a565b602082019050919050565b6000602082019050818103600083015261089f81610863565b9050919050565b60008190508160005260206000209050919050565b60006020601f8301049050919050565b600082821b905092915050565b6000600883026109087fffffffffffffffffffffffffffffffffffffffffffffffffffffffffffffffff826108cb565b61091286836108cb565b95508019841693508086168417925050509392505050565b6000819050919050565b600061094f61094a61094584610777565b61092a565b610777565b9050919050565b6000819050919050565b61096983610934565b61097d61097582610956565b8484546108d8565b825550505050565b600090565b610992610985565b61099d818484610960565b505050565b5b818110156109c1576109b660008261098a565b6001810190506109a3565b5050565b601f821115610a06576109d7816108a6565b6109e0846108bb565b810160208510156109ef578190505b610a036109fb856108bb565b8301826109a2565b50505b505050565b600082821c905092915050565b6000610a2960001984600802610a0b565b1980831691505092915050565b6000610a428383610a18565b9150826002028217905092915050565b610a5b8261047e565b67ffffffffffffffff811115610a7457610a7361054e565b5b610a7e8254610809565b610a898282856109c5565b600060209050601f831160018114610abc5760008415610aaa578287015190505b610ab48582610a36565b865550610b1c565b601f198416610aca866108a6565b60005b82811015610af257848901518255600182019150602085019450602081019050610acd565b86831015610b0f5784890151610b0b601f891682610a18565b8355505b6001600288020188555050505b50505050505056fea2646970667358221220ef5dd54d4fb256516bb3b0635b93e7d7800061308a142805a764c12995a8d60364736f6c63430008140033",
          "opcodes": "PUSH1 0x80 PUSH1 0x40 MSTORE CALLVALUE DUP1 ISZERO PUSH3 0x11 JUMPI PUSH1 0x0 DUP1 REVERT JUMPDEST POP PUSH1 0x40 MLOAD PUSH3 0x1111 CODESIZE SUB DUP1 PUSH3 0x1111 DUP4 CODECOPY DUP2 DUP2 ADD PUSH1 0x40 MSTORE DUP2 ADD SWAP1 PUSH3 0x37 SWAP2 SWAP1 PUSH3 0x224 JUMP JUMPDEST DUP1 PUSH1 0x3 SWAP1 DUP2 PUSH3 0x48 SWAP2 SWAP1 PUSH3 0x4C0 JUMP JUMPDEST POP CALLER PUSH1 0x1 PUSH1 0x0 PUSH2 0x100 EXP DUP2 SLOAD DUP2 PUSH20 0xFFFFFFFFFFFFFFFFFFFFFFFFFFFFFFFFFFFFFFFF MUL NOT AND SWAP1 DUP4 PUSH20 0xFFFFFFFFFFFFFFFFFFFFFFFFFFFFFFFFFFFFFFFF AND MUL OR SWAP1 SSTORE POP POP PUSH3 0x5A7 JUMP JUMPDEST PUSH1 0x0 PUSH1 0x40 MLOAD SWAP1 POP SWAP1 JUMP JUMPDEST PUSH1 0x0 DUP1 REVERT JUMPDEST PUSH1 0x0 DUP1 REVERT JUMPDEST PUSH1 0x0 DUP1 REVERT JUMPDEST PUSH1 0x0 DUP1 REVERT JUMPDEST PUSH1 0x0 PUSH1 0x1F NOT PUSH1 0x1F DUP4 ADD AND SWAP1 POP SWAP2 SWAP1 POP JUMP JUMPDEST PUSH32 0x4E487B7100000000000000000000000000000000000000000000000000000000 PUSH1 0x0 MSTORE PUSH1 0x41 PUSH1 0x4 MSTORE PUSH1 0x24 PUSH1 0x0 REVERT JUMPDEST PUSH3 0xFA DUP3 PUSH3 0xAF JUMP JUMPDEST DUP2 ADD DUP2 DUP2 LT PUSH8 0xFFFFFFFFFFFFFFFF DUP3 GT OR ISZERO PUSH3 0x11C JUMPI PUSH3 0x11B PUSH3 0xC0 JUMP JUMPDEST JUMPDEST DUP1 PUSH1 0x40 MSTORE POP POP POP JUMP JUMPDEST PUSH1 0x0 PUSH3 0x131 PUSH3 0x91 JUMP JUMPDEST SWAP1 POP PUSH3 0x13F DUP3 DUP3 PUSH3 0xEF JUMP JUMPDEST SWAP2 SWAP1 POP JUMP JUMPDEST PUSH1 0x0 PUSH8 0xFFFFFFFFFFFFFFFF DUP3 GT ISZERO PUSH3 0x162 JUMPI PUSH3 0x161 PUSH3 0xC0 JUMP JUMPDEST JUMPDEST PUSH3 0x16D DUP3 PUSH3 0xAF JUMP JUMPDEST SWAP1 POP PUSH1 0x20 DUP2 ADD SWAP1 POP SWAP2 SWAP1 POP JUMP JUMPDEST PUSH1 0x0 JUMPDEST DUP4 DUP2 LT ISZERO PUSH3 0x19A JUMPI DUP1 DUP3 ADD MLOAD DUP2 DUP5 ADD MSTORE PUSH1 0x20 DUP2 ADD SWAP1 POP PUSH3 0x17D JUMP JUMPDEST PUSH1 0x0 DUP5 DUP5 ADD MSTORE POP POP POP POP JUMP JUMPDEST PUSH1 0x0 PUSH3 0x1BD PUSH3 0x1B7 DUP5 PUSH3 0x144 JUMP JUMPDEST PUSH3 0x125 JUMP JUMPDEST SWAP1 POP DUP3 DUP2 MSTORE PUSH1 0x20 DUP2 ADD DUP5 DUP5 DUP5 ADD GT ISZERO PUSH3 0x1DC JUMPI PUSH3 0x1DB PUSH3 0xAA JUMP JUMPDEST JUMPDEST PUSH3 0x1E9 DUP5 DUP3 DUP6 PUSH3 0x17A JUMP JUMPDEST POP SWAP4 SWAP3 POP POP POP JUMP JUMPDEST PUSH1 0x0 DUP3 PUSH1 0x1F DUP4 ADD SLT PUSH3 0x209 JUMPI PUSH3 0x208 PUSH3 0xA5 JUMP JUMPDEST JUMPDEST DUP2 MLOAD PUSH3 0x21B DUP5 DUP3 PUSH1 0x20 DUP7 ADD PUSH3 0x1A6 JUMP JUMPDEST SWAP2 POP POP SWAP3 SWAP2 POP POP JUMP JUMPDEST PUSH1 0x0 PUSH1 0x20 DUP3 DUP5 SUB SLT ISZERO PUSH3 0x23D JUMPI PUSH3 0x23C PUSH3 0x9B JUMP JUMPDEST JUMPDEST PUSH1 0x0 DUP3 ADD MLOAD PUSH8 0xFFFFFFFFFFFFFFFF DUP2 GT ISZERO PUSH3 0x25E JUMPI PUSH3 0x25D PUSH3 0xA0 JUMP JUMPDEST JUMPDEST PUSH3 0x26C DUP5 DUP3 DUP6 ADD PUSH3 0x1F1 JUMP JUMPDEST SWAP2 POP POP SWAP3 SWAP2 POP POP JUMP JUMPDEST PUSH1 0x0 DUP2 MLOAD SWAP1 POP SWAP2 SWAP1 POP JUMP JUMPDEST PUSH32 0x4E487B7100000000000000000000000000000000000000000000000000000000 PUSH1 0x0 MSTORE PUSH1 0x22 PUSH1 0x4 MSTORE PUSH1 0x24 PUSH1 0x0 REVERT JUMPDEST PUSH1 0x0 PUSH1 0x2 DUP3 DIV SWAP1 POP PUSH1 0x1 DUP3 AND DUP1 PUSH3 0x2C8 JUMPI PUSH1 0x7F DUP3 AND SWAP2 POP JUMPDEST PUSH1 0x20 DUP3 LT DUP2 SUB PUSH3 0x2DE JUMPI PUSH3 0x2DD PUSH3 0x280 JUMP JUMPDEST JUMPDEST POP SWAP2 SWAP1 POP JUMP JUMPDEST PUSH1 0x0 DUP2 SWAP1 POP DUP2 PUSH1 0x0 MSTORE PUSH1 0x20 PUSH1 0x0 KECCAK256 SWAP1 POP SWAP2 SWAP1 POP JUMP JUMPDEST PUSH1 0x0 PUSH1 0x20 PUSH1 0x1F DUP4 ADD DIV SWAP1 POP SWAP2 SWAP1 POP JUMP JUMPDEST PUSH1 0x0 DUP3 DUP3 SHL SWAP1 POP SWAP3 SWAP2 POP POP JUMP JUMPDEST PUSH1 0x0 PUSH1 0x8 DUP4 MUL PUSH3 0x348 PUSH32 0xFFFFFFFFFFFFFFFFFFFFFFFFFFFFFFFFFFFFFFFFFFFFFFFFFFFFFFFFFFFFFFFF DUP3 PUSH3 0x309 JUMP JUMPDEST PUSH3 0x354 DUP7 DUP4 PUSH3 0x309 JUMP JUMPDEST SWAP6 POP DUP1 NOT DUP5 AND SWAP4 POP DUP1 DUP7 AND DUP5 OR SWAP3 POP POP POP SWAP4 SWAP3 POP POP POP JUMP JUMPDEST PUSH1 0x0 DUP2 SWAP1 POP SWAP2 SWAP1 POP JUMP JUMPDEST PUSH1 0x0 DUP2 SWAP1 POP SWAP2 SWAP1 POP JUMP JUMPDEST PUSH1 0x0 PUSH3 0x3A1 PUSH3 0x39B PUSH3 0x395 DUP5 PUSH3 0x36C JUMP JUMPDEST PUSH3 0x376 JUMP JUMPDEST PUSH3 0x36C JUMP JUMPDEST SWAP1 POP SWAP2 SWAP1 POP JUMP JUMPDEST PUSH1 0x0 DUP2 SWAP1 POP SWAP2 SWAP1 POP JUMP JUMPDEST PUSH3 0x3BD DUP4 PUSH3 0x380 JUMP JUMPDEST PUSH3 0x3D5 PUSH3 0x3CC DUP3 PUSH3 0x3A8 JUMP JUMPDEST DUP5 DUP5 SLOAD PUSH3 0x316 JUMP JUMPDEST DUP3 SSTORE POP POP POP POP JUMP JUMPDEST PUSH1 0x0 SWAP1 JUMP JUMPDEST PUSH3 0x3EC PUSH3 0x3DD JUMP JUMPDEST PUSH3 0x3F9 DUP2 DUP5 DUP5 PUSH3 0x3B2 JUMP JUMPDEST POP POP POP JUMP JUMPDEST JUMPDEST DUP2 DUP2 LT ISZERO PUSH3 0x421 JUMPI PUSH3 0x415 PUSH1 0x0 DUP3 PUSH3 0x3E2 JUMP JUMPDEST PUSH1 0x1 DUP2 ADD SWAP1 POP PUSH3 0x3FF JUMP JUMPDEST POP POP JUMP JUMPDEST PUSH1 0x1F DUP3 GT ISZERO PUSH3 0x470 JUMPI PUSH3 0x43A DUP2 PUSH3 0x2E4 JUMP JUMPDEST PUSH3 0x445 DUP5 PUSH3 0x2F9 JUMP JUMPDEST DUP2 ADD PUSH1 0x20 DUP6 LT ISZERO PUSH3 0x455 JUMPI DUP2 SWAP1 POP JUMPDEST PUSH3 0x46D PUSH3 0x464 DUP6 PUSH3 0x2F9 JUMP JUMPDEST DUP4 ADD DUP3 PUSH3 0x3FE JUMP JUMPDEST POP POP JUMPDEST POP POP POP JUMP JUMPDEST PUSH1 0x0 DUP3 DUP3 SHR SWAP1 POP SWAP3 SWAP2 POP POP JUMP JUMPDEST PUSH1 0x0 PUSH3 0x495 PUSH1 0x0 NOT DUP5 PUSH1 0x8 MUL PUSH3 0x475 JUMP JUMPDEST NOT DUP1 DUP4 AND SWAP2 POP POP SWAP3 SWAP2 POP POP JUMP JUMPDEST PUSH1 0x0 PUSH3 0x4B0 DUP4 DUP4 PUSH3 0x482 JUMP JUMPDEST SWAP2 POP DUP3 PUSH1 0x2 MUL DUP3 OR SWAP1 POP SWAP3 SWAP2 POP POP JUMP JUMPDEST PUSH3 0x4CB DUP3 PUSH3 0x275 JUMP JUMPDEST PUSH8 0xFFFFFFFFFFFFFFFF DUP2 GT ISZERO PUSH3 0x4E7 JUMPI PUSH3 0x4E6 PUSH3 0xC0 JUMP JUMPDEST JUMPDEST PUSH3 0x4F3 DUP3 SLOAD PUSH3 0x2AF JUMP JUMPDEST PUSH3 0x500 DUP3 DUP3 DUP6 PUSH3 0x425 JUMP JUMPDEST PUSH1 0x0 PUSH1 0x20 SWAP1 POP PUSH1 0x1F DUP4 GT PUSH1 0x1 DUP2 EQ PUSH3 0x538 JUMPI PUSH1 0x0 DUP5 ISZERO PUSH3 0x523 JUMPI DUP3 DUP8 ADD MLOAD SWAP1 POP JUMPDEST PUSH3 0x52F DUP6 DUP3 PUSH3 0x4A2 JUMP JUMPDEST DUP7 SSTORE POP PUSH3 0x59F JUMP JUMPDEST PUSH1 0x1F NOT DUP5 AND PUSH3 0x548 DUP7 PUSH3 0x2E4 JUMP JUMPDEST PUSH1 0x0 JUMPDEST DUP3 DUP2 LT ISZERO PUSH3 0x572 JUMPI DUP5 DUP10 ADD MLOAD DUP3 SSTORE PUSH1 0x1 DUP3 ADD SWAP2 POP PUSH1 0x20 DUP6 ADD SWAP5 POP PUSH1 0x20 DUP2 ADD SWAP1 POP PUSH3 0x54B JUMP JUMPDEST DUP7 DUP4 LT ISZERO PUSH3 0x592 JUMPI DUP5 DUP10 ADD MLOAD PUSH3 0x58E PUSH1 0x1F DUP10 AND DUP3 PUSH3 0x482 JUMP JUMPDEST DUP4 SSTORE POP JUMPDEST PUSH1 0x1 PUSH1 0x2 DUP9 MUL ADD DUP9 SSTORE POP POP POP JUMPDEST POP POP POP POP POP POP JUMP JUMPDEST PUSH2 0xB5A DUP1 PUSH3 0x5B7 PUSH1 0x0 CODECOPY PUSH1 0x0 RETURN INVALID PUSH1 0x80 PUSH1 0x40 MSTORE CALLVALUE DUP1 ISZERO PUSH2 0x10 JUMPI PUSH1 0x0 DUP1 REVERT JUMPDEST POP PUSH1 0x4 CALLDATASIZE LT PUSH2 0x7D JUMPI PUSH1 0x0 CALLDATALOAD PUSH1 0xE0 SHR DUP1 PUSH4 0x8DA5CB5B GT PUSH2 0x5B JUMPI DUP1 PUSH4 0x8DA5CB5B EQ PUSH2 0xDA JUMPI DUP1 PUSH4 0x9D87916A EQ PUSH2 0xF8 JUMPI DUP1 PUSH4 0xB3AF0DC6 EQ PUSH2 0x114 JUMPI DUP1 PUSH4 0xF2A40DB8 EQ PUSH2 0x132 JUMPI PUSH2 0x7D JUMP JUMPDEST DUP1 PUSH4 0x6FDDE03 EQ PUSH2 0x82 JUMPI DUP1 PUSH4 0x3BD64592 EQ PUSH2 0xA0 JUMPI DUP1 PUSH4 0x6E47A282 EQ PUSH2 0xBE JUMPI JUMPDEST PUSH1 0x0 DUP1 REVERT JUMPDEST PUSH2 0x8A PUSH2 0x162 JUMP JUMPDEST PUSH1 0x40 MLOAD PUSH2 0x97 SWAP2 SWAP1 PUSH2 0x50E JUMP JUMPDEST PUSH1 0x40 MLOAD DUP1 SWAP2 SUB SWAP1 RETURN JUMPDEST PUSH2 0xA8 PUSH2 0x1F0 JUMP JUMPDEST PUSH1 0x40 MLOAD PUSH2 0xB5 SWAP2 SWAP1 PUSH2 0x50E JUMP JUMPDEST PUSH1 0x40 MLOAD DUP1 SWAP2 SUB SWAP1 RETURN JUMPDEST PUSH2 0xD8 PUSH1 0x4 DUP1 CALLDATASIZE SUB DUP2 ADD SWAP1 PUSH2 0xD3 SWAP2 SWAP1 PUSH2 0x679 JUMP JUMPDEST PUSH2 0x27E JUMP JUMPDEST STOP JUMPDEST PUSH2 0xE2 PUSH2 0x321 JUMP JUMPDEST PUSH1 0x40 MLOAD PUSH2 0xEF SWAP2 SWAP1 PUSH2 0x703 JUMP JUMPDEST PUSH1 0x40 MLOAD DUP1 SWAP2 SUB SWAP1 RETURN JUMPDEST PUSH2 0x112 PUSH1 0x4 DUP1 CALLDATASIZE SUB DUP2 ADD SWAP1 PUSH2 0x10D SWAP2 SWAP1 PUSH2 0x74A JUMP JUMPDEST PUSH2 0x347 JUMP JUMPDEST STOP JUMPDEST PUSH2 0x11C PUSH2 0x3AD JUMP JUMPDEST PUSH1 0x40 MLOAD PUSH2 0x129 SWAP2 SWAP1 PUSH2 0x50E JUMP JUMPDEST PUSH1 0x40 MLOAD DUP1 SWAP2 SUB SWAP1 RETURN JUMPDEST PUSH2 0x14C PUSH1 0x4 DUP1 CALLDATASIZE SUB DUP2 ADD SWAP1 PUSH2 0x147 SWAP2 SWAP1 PUSH2 0x7AD JUMP JUMPDEST PUSH2 0x43F JUMP JUMPDEST PUSH1 0x40 MLOAD PUSH2 0x159 SWAP2 SWAP1 PUSH2 0x703 JUMP JUMPDEST PUSH1 0x40 MLOAD DUP1 SWAP2 SUB SWAP1 RETURN JUMPDEST PUSH1 0x3 DUP1 SLOAD PUSH2 0x16F SWAP1 PUSH2 0x809 JUMP JUMPDEST DUP1 PUSH1 0x1F ADD PUSH1 0x20 DUP1 SWAP2 DIV MUL PUSH1 0x20 ADD PUSH1 0x40 MLOAD SWAP1 DUP2 ADD PUSH1 0x40 MSTORE DUP1 SWAP3 SWAP2 SWAP1 DUP2 DUP2 MSTORE PUSH1 0x20 ADD DUP3 DUP1 SLOAD PUSH2 0x19B SWAP1 PUSH2 0x809 JUMP JUMPDEST DUP1 ISZERO PUSH2 0x1E8 JUMPI DUP1 PUSH1 0x1F LT PUSH2 0x1BD JUMPI PUSH2 0x100 DUP1 DUP4 SLOAD DIV MUL DUP4 MSTORE SWAP2 PUSH1 0x20 ADD SWAP2 PUSH2 0x1E8 JUMP JUMPDEST DUP3 ADD SWAP2 SWAP1 PUSH1 0x0 MSTORE PUSH1 0x20 PUSH1 0x0 KECCAK256 SWAP1 JUMPDEST DUP2 SLOAD DUP2 MSTORE SWAP1 PUSH1 0x1 ADD SWAP1 PUSH1 0x20 ADD DUP1 DUP4 GT PUSH2 0x1CB JUMPI DUP3 SWAP1 SUB PUSH1 0x1F AND DUP3 ADD SWAP2 JUMPDEST POP POP POP POP POP DUP2 JUMP JUMPDEST PUSH1 0x2 DUP1 SLOAD PUSH2 0x1FD SWAP1 PUSH2 0x809 JUMP JUMPDEST DUP1 PUSH1 0x1F ADD PUSH1 0x20 DUP1 SWAP2 DIV MUL PUSH1 0x20 ADD PUSH1 0x40 MLOAD SWAP1 DUP2 ADD PUSH1 0x40 MSTORE DUP1 SWAP3 SWAP2 SWAP1 DUP2 DUP2 MSTORE PUSH1 0x20 ADD DUP3 DUP1 SLOAD PUSH2 0x229 SWAP1 PUSH2 0x809 JUMP JUMPDEST DUP1 ISZERO PUSH2 0x276 JUMPI DUP1 PUSH1 0x1F LT PUSH2 0x24B JUMPI PUSH2 0x100 DUP1 DUP4 SLOAD DIV MUL DUP4 MSTORE SWAP2 PUSH1 0x20 ADD SWAP2 PUSH2 0x276 JUMP JUMPDEST DUP3 ADD SWAP2 SWAP1 PUSH1 0x0 MSTORE PUSH1 0x20 PUSH1 0x0 KECCAK256 SWAP1 JUMPDEST DUP2 SLOAD DUP2 MSTORE SWAP1 PUSH1 0x1 ADD SWAP1 PUSH1 0x20 ADD DUP1 DUP4 GT PUSH2 0x259 JUMPI DUP3 SWAP1 SUB PUSH1 0x1F AND DUP3 ADD SWAP2 JUMPDEST POP POP POP POP POP DUP2 JUMP JUMPDEST CALLER PUSH20 0xFFFFFFFFFFFFFFFFFFFFFFFFFFFFFFFFFFFFFFFF AND PUSH1 0x1 PUSH1 0x0 SWAP1 SLOAD SWAP1 PUSH2 0x100 EXP SWAP1 DIV PUSH20 0xFFFFFFFFFFFFFFFFFFFFFFFFFFFFFFFFFFFFFFFF AND PUSH20 0xFFFFFFFFFFFFFFFFFFFFFFFFFFFFFFFFFFFFFFFF AND SUB PUSH2 0x30E JUMPI PUSH1 0x40 MLOAD PUSH32 0x8C379A000000000000000000000000000000000000000000000000000000000 DUP2 MSTORE PUSH1 0x4 ADD PUSH2 0x305 SWAP1 PUSH2 0x886 JUMP JUMPDEST PUSH1 0x40 MLOAD DUP1 SWAP2 SUB SWAP1 REVERT JUMPDEST DUP1 PUSH1 0x2 SWAP1 DUP2 PUSH2 0x31D SWAP2 SWAP1 PUSH2 0xA52 JUMP JUMPDEST POP POP JUMP JUMPDEST PUSH1 0x1 PUSH1 0x0 SWAP1 SLOAD SWAP1 PUSH2 0x100 EXP SWAP1 DIV PUSH20 0xFFFFFFFFFFFFFFFFFFFFFFFFFFFFFFFFFFFFFFFF AND DUP2 JUMP JUMPDEST PUSH1 0x0 DUP2 SWAP1 DUP1 PUSH1 0x1 DUP2 SLOAD ADD DUP1 DUP3 SSTORE DUP1 SWAP2 POP POP PUSH1 0x1 SWAP1 SUB SWAP1 PUSH1 0x0 MSTORE PUSH1 0x20 PUSH1 0x0 KECCAK256 ADD PUSH1 0x0 SWAP1 SWAP2 SWAP1 SWAP2 SWAP1 SWAP2 PUSH2 0x100 EXP DUP2 SLOAD DUP2 PUSH20 0xFFFFFFFFFFFFFFFFFFFFFFFFFFFFFFFFFFFFFFFF MUL NOT AND SWAP1 DUP4 PUSH20 0xFFFFFFFFFFFFFFFFFFFFFFFFFFFFFFFFFFFFFFFF AND MUL OR SWAP1 SSTORE POP POP JUMP JUMPDEST PUSH1 0x60 PUSH1 0x2 DUP1 SLOAD PUSH2 0x3BC SWAP1 PUSH2 0x809 JUMP JUMPDEST DUP1 PUSH1 0x1F ADD PUSH1 0x20 DUP1 SWAP2 DIV MUL PUSH1 0x20 ADD PUSH1 0x40 MLOAD SWAP1 DUP2 ADD PUSH1 0x40 MSTORE DUP1 SWAP3 SWAP2 SWAP1 DUP2 DUP2 MSTORE PUSH1 0x20 ADD DUP3 DUP1 SLOAD PUSH2 0x3E8 SWAP1 PUSH2 0x809 JUMP JUMPDEST DUP1 ISZERO PUSH2 0x435 JUMPI DUP1 PUSH1 0x1F LT PUSH2 0x40A JUMPI PUSH2 0x100 DUP1 DUP4 SLOAD DIV MUL DUP4 MSTORE SWAP2 PUSH1 0x20 ADD SWAP2 PUSH2 0x435 JUMP JUMPDEST DUP3 ADD SWAP2 SWAP1 PUSH1 0x0 MSTORE PUSH1 0x20 PUSH1 0x0 KECCAK256 SWAP1 JUMPDEST DUP2 SLOAD DUP2 MSTORE SWAP1 PUSH1 0x1 ADD SWAP1 PUSH1 0x20 ADD DUP1 DUP4 GT PUSH2 0x418 JUMPI DUP3 SWAP1 SUB PUSH1 0x1F AND DUP3 ADD SWAP2 JUMPDEST POP POP POP POP POP SWAP1 POP SWAP1 JUMP JUMPDEST PUSH1 0x0 DUP2 DUP2 SLOAD DUP2 LT PUSH2 0x44F JUMPI PUSH1 0x0 DUP1 REVERT JUMPDEST SWAP1 PUSH1 0x0 MSTORE PUSH1 0x20 PUSH1 0x0 KECCAK256 ADD PUSH1 0x0 SWAP2 POP SLOAD SWAP1 PUSH2 0x100 EXP SWAP1 DIV PUSH20 0xFFFFFFFFFFFFFFFFFFFFFFFFFFFFFFFFFFFFFFFF AND DUP2 JUMP JUMPDEST PUSH1 0x0 DUP2 MLOAD SWAP1 POP SWAP2 SWAP1 POP JUMP JUMPDEST PUSH1 0x0 DUP3 DUP3 MSTORE PUSH1 0x20 DUP3 ADD SWAP1 POP SWAP3 SWAP2 POP POP JUMP JUMPDEST PUSH1 0x0 JUMPDEST DUP4 DUP2 LT ISZERO PUSH2 0x4B8 JUMPI DUP1 DUP3 ADD MLOAD DUP2 DUP5 ADD MSTORE PUSH1 0x20 DUP2 ADD SWAP1 POP PUSH2 0x49D JUMP JUMPDEST PUSH1 0x0 DUP5 DUP5 ADD MSTORE POP POP POP POP JUMP JUMPDEST PUSH1 0x0 PUSH1 0x1F NOT PUSH1 0x1F DUP4 ADD AND SWAP1 POP SWAP2 SWAP1 POP JUMP JUMPDEST PUSH1 0x0 PUSH2 0x4E0 DUP3 PUSH2 0x47E JUMP JUMPDEST PUSH2 0x4EA DUP2 DUP6 PUSH2 0x489 JUMP JUMPDEST SWAP4 POP PUSH2 0x4FA DUP2 DUP6 PUSH1 0x20 DUP7 ADD PUSH2 0x49A JUMP JUMPDEST PUSH2 0x503 DUP2 PUSH2 0x4C4 JUMP JUMPDEST DUP5 ADD SWAP2 POP POP SWAP3 SWAP2 POP POP JUMP JUMPDEST PUSH1 0x0 PUSH1 0x20 DUP3 ADD SWAP1 POP DUP2 DUP2 SUB PUSH1 0x0 DUP4 ADD MSTORE PUSH2 0x528 DUP2 DUP5 PUSH2 0x4D5 JUMP JUMPDEST SWAP1 POP SWAP3 SWAP2 POP POP JUMP JUMPDEST PUSH1 0x0 PUSH1 0x40 MLOAD SWAP1 POP SWAP1 JUMP JUMPDEST PUSH1 0x0 DUP1 REVERT JUMPDEST PUSH1 0x0 DUP1 REVERT JUMPDEST PUSH1 0x0 DUP1 REVERT JUMPDEST PUSH1 0x0 DUP1 REVERT JUMPDEST PUSH32 0x4E487B7100000000000000000000000000000000000000000000000000000000 PUSH1 0x0 MSTORE PUSH1 0x41 PUSH1 0x4 MSTORE PUSH1 0x24 PUSH1 0x0 REVERT JUMPDEST PUSH2 0x586 DUP3 PUSH2 0x4C4 JUMP JUMPDEST DUP2 ADD DUP2 DUP2 LT PUSH8 0xFFFFFFFFFFFFFFFF DUP3 GT OR ISZERO PUSH2 0x5A5 JUMPI PUSH2 0x5A4 PUSH2 0x54E JUMP JUMPDEST JUMPDEST DUP1 PUSH1 0x40 MSTORE POP POP POP JUMP JUMPDEST PUSH1 0x0 PUSH2 0x5B8 PUSH2 0x530 JUMP JUMPDEST SWAP1 POP PUSH2 0x5C4 DUP3 DUP3 PUSH2 0x57D JUMP JUMPDEST SWAP2 SWAP1 POP JUMP JUMPDEST PUSH1 0x0 PUSH8 0xFFFFFFFFFFFFFFFF DUP3 GT ISZERO PUSH2 0x5E4 JUMPI PUSH2 0x5E3 PUSH2 0x54E JUMP JUMPDEST JUMPDEST PUSH2 0x5ED DUP3 PUSH2 0x4C4 JUMP JUMPDEST SWAP1 POP PUSH1 0x20 DUP2 ADD SWAP1 POP SWAP2 SWAP1 POP JUMP JUMPDEST DUP3 DUP2 DUP4 CALLDATACOPY PUSH1 0x0 DUP4 DUP4 ADD MSTORE POP POP POP JUMP JUMPDEST PUSH1 0x0 PUSH2 0x61C PUSH2 0x617 DUP5 PUSH2 0x5C9 JUMP JUMPDEST PUSH2 0x5AE JUMP JUMPDEST SWAP1 POP DUP3 DUP2 MSTORE PUSH1 0x20 DUP2 ADD DUP5 DUP5 DUP5 ADD GT ISZERO PUSH2 0x638 JUMPI PUSH2 0x637 PUSH2 0x549 JUMP JUMPDEST JUMPDEST PUSH2 0x643 DUP5 DUP3 DUP6 PUSH2 0x5FA JUMP JUMPDEST POP SWAP4 SWAP3 POP POP POP JUMP JUMPDEST PUSH1 0x0 DUP3 PUSH1 0x1F DUP4 ADD SLT PUSH2 0x660 JUMPI PUSH2 0x65F PUSH2 0x544 JUMP JUMPDEST JUMPDEST DUP2 CALLDATALOAD PUSH2 0x670 DUP5 DUP3 PUSH1 0x20 DUP7 ADD PUSH2 0x609 JUMP JUMPDEST SWAP2 POP POP SWAP3 SWAP2 POP POP JUMP JUMPDEST PUSH1 0x0 PUSH1 0x20 DUP3 DUP5 SUB SLT ISZERO PUSH2 0x68F JUMPI PUSH2 0x68E PUSH2 0x53A JUMP JUMPDEST JUMPDEST PUSH1 0x0 DUP3 ADD CALLDATALOAD PUSH8 0xFFFFFFFFFFFFFFFF DUP2 GT ISZERO PUSH2 0x6AD JUMPI PUSH2 0x6AC PUSH2 0x53F JUMP JUMPDEST JUMPDEST PUSH2 0x6B9 DUP5 DUP3 DUP6 ADD PUSH2 0x64B JUMP JUMPDEST SWAP2 POP POP SWAP3 SWAP2 POP POP JUMP JUMPDEST PUSH1 0x0 PUSH20 0xFFFFFFFFFFFFFFFFFFFFFFFFFFFFFFFFFFFFFFFF DUP3 AND SWAP1 POP SWAP2 SWAP1 POP JUMP JUMPDEST PUSH1 0x0 PUSH2 0x6ED DUP3 PUSH2 0x6C2 JUMP JUMPDEST SWAP1 POP SWAP2 SWAP1 POP JUMP JUMPDEST PUSH2 0x6FD DUP2 PUSH2 0x6E2 JUMP JUMPDEST DUP3 MSTORE POP POP JUMP JUMPDEST PUSH1 0x0 PUSH1 0x20 DUP3 ADD SWAP1 POP PUSH2 0x718 PUSH1 0x0 DUP4 ADD DUP5 PUSH2 0x6F4 JUMP JUMPDEST SWAP3 SWAP2 POP POP JUMP JUMPDEST PUSH2 0x727 DUP2 PUSH2 0x6E2 JUMP JUMPDEST DUP2 EQ PUSH2 0x732 JUMPI PUSH1 0x0 DUP1 REVERT JUMPDEST POP JUMP JUMPDEST PUSH1 0x0 DUP2 CALLDATALOAD SWAP1 POP PUSH2 0x744 DUP2 PUSH2 0x71E JUMP JUMPDEST SWAP3 SWAP2 POP POP JUMP JUMPDEST PUSH1 0x0 PUSH1 0x20 DUP3 DUP5 SUB SLT ISZERO PUSH2 0x760 JUMPI PUSH2 0x75F PUSH2 0x53A JUMP JUMPDEST JUMPDEST PUSH1 0x0 PUSH2 0x76E DUP5 DUP3 DUP6 ADD PUSH2 0x735 JUMP JUMPDEST SWAP2 POP POP SWAP3 SWAP2 POP POP JUMP JUMPDEST PUSH1 0x0 DUP2 SWAP1 POP SWAP2 SWAP1 POP JUMP JUMPDEST PUSH2 0x78A DUP2 PUSH2 0x777 JUMP JUMPDEST DUP2 EQ PUSH2 0x795 JUMPI PUSH1 0x0 DUP1 REVERT JUMPDEST POP JUMP JUMPDEST PUSH1 0x0 DUP2 CALLDATALOAD SWAP1 POP PUSH2 0x7A7 DUP2 PUSH2 0x781 JUMP JUMPDEST SWAP3 SWAP2 POP POP JUMP JUMPDEST PUSH1 0x0 PUSH1 0x20 DUP3 DUP5 SUB SLT ISZERO PUSH2 0x7C3 JUMPI PUSH2 0x7C2 PUSH2 0x53A JUMP JUMPDEST JUMPDEST PUSH1 0x0 PUSH2 0x7D1 DUP5 DUP3 DUP6 ADD PUSH2 0x798 JUMP JUMPDEST SWAP2 POP POP SWAP3 SWAP2 POP POP JUMP JUMPDEST PUSH32 0x4E487B7100000000000000000000000000000000000000000000000000000000 PUSH1 0x0 MSTORE PUSH1 0x22 PUSH1 0x4 MSTORE PUSH1 0x24 PUSH1 0x0 REVERT JUMPDEST PUSH1 0x0 PUSH1 0x2 DUP3 DIV SWAP1 POP PUSH1 0x1 DUP3 AND DUP1 PUSH2 0x821 JUMPI PUSH1 0x7F DUP3 AND SWAP2 POP JUMPDEST PUSH1 0x20 DUP3 LT DUP2 SUB PUSH2 0x834 JUMPI PUSH2 0x833 PUSH2 0x7DA JUMP JUMPDEST JUMPDEST POP SWAP2 SWAP1 POP JUMP JUMPDEST PUSH32 0x4F6E6C79206F776E65722075706461746520617661746F720000000000000000 PUSH1 0x0 DUP3 ADD MSTORE POP JUMP JUMPDEST PUSH1 0x0 PUSH2 0x870 PUSH1 0x18 DUP4 PUSH2 0x489 JUMP JUMPDEST SWAP2 POP PUSH2 0x87B DUP3 PUSH2 0x83A JUMP JUMPDEST PUSH1 0x20 DUP3 ADD SWAP1 POP SWAP2 SWAP1 POP JUMP JUMPDEST PUSH1 0x0 PUSH1 0x20 DUP3 ADD SWAP1 POP DUP2 DUP2 SUB PUSH1 0x0 DUP4 ADD MSTORE PUSH2 0x89F DUP2 PUSH2 0x863 JUMP JUMPDEST SWAP1 POP SWAP2 SWAP1 POP JUMP JUMPDEST PUSH1 0x0 DUP2 SWAP1 POP DUP2 PUSH1 0x0 MSTORE PUSH1 0x20 PUSH1 0x0 KECCAK256 SWAP1 POP SWAP2 SWAP1 POP JUMP JUMPDEST PUSH1 0x0 PUSH1 0x20 PUSH1 0x1F DUP4 ADD DIV SWAP1 POP SWAP2 SWAP1 POP JUMP JUMPDEST PUSH1 0x0 DUP3 DUP3 SHL SWAP1 POP SWAP3 SWAP2 POP POP JUMP JUMPDEST PUSH1 0x0 PUSH1 0x8 DUP4 MUL PUSH2 0x908 PUSH32 0xFFFFFFFFFFFFFFFFFFFFFFFFFFFFFFFFFFFFFFFFFFFFFFFFFFFFFFFFFFFFFFFF DUP3 PUSH2 0x8CB JUMP JUMPDEST PUSH2 0x912 DUP7 DUP4 PUSH2 0x8CB JUMP JUMPDEST SWAP6 POP DUP1 NOT DUP5 AND SWAP4 POP DUP1 DUP7 AND DUP5 OR SWAP3 POP POP POP SWAP4 SWAP3 POP POP POP JUMP JUMPDEST PUSH1 0x0 DUP2 SWAP1 POP SWAP2 SWAP1 POP JUMP JUMPDEST PUSH1 0x0 PUSH2 0x94F PUSH2 0x94A PUSH2 0x945 DUP5 PUSH2 0x777 JUMP JUMPDEST PUSH2 0x92A JUMP JUMPDEST PUSH2 0x777 JUMP JUMPDEST SWAP1 POP SWAP2 SWAP1 POP JUMP JUMPDEST PUSH1 0x0 DUP2 SWAP1 POP SWAP2 SWAP1 POP JUMP JUMPDEST PUSH2 0x969 DUP4 PUSH2 0x934 JUMP JUMPDEST PUSH2 0x97D PUSH2 0x975 DUP3 PUSH2 0x956 JUMP JUMPDEST DUP5 DUP5 SLOAD PUSH2 0x8D8 JUMP JUMPDEST DUP3 SSTORE POP POP POP POP JUMP JUMPDEST PUSH1 0x0 SWAP1 JUMP JUMPDEST PUSH2 0x992 PUSH2 0x985 JUMP JUMPDEST PUSH2 0x99D DUP2 DUP5 DUP5 PUSH2 0x960 JUMP JUMPDEST POP POP POP JUMP JUMPDEST JUMPDEST DUP2 DUP2 LT ISZERO PUSH2 0x9C1 JUMPI PUSH2 0x9B6 PUSH1 0x0 DUP3 PUSH2 0x98A JUMP JUMPDEST PUSH1 0x1 DUP2 ADD SWAP1 POP PUSH2 0x9A3 JUMP JUMPDEST POP POP JUMP JUMPDEST PUSH1 0x1F DUP3 GT ISZERO PUSH2 0xA06 JUMPI PUSH2 0x9D7 DUP2 PUSH2 0x8A6 JUMP JUMPDEST PUSH2 0x9E0 DUP5 PUSH2 0x8BB JUMP JUMPDEST DUP2 ADD PUSH1 0x20 DUP6 LT ISZERO PUSH2 0x9EF JUMPI DUP2 SWAP1 POP JUMPDEST PUSH2 0xA03 PUSH2 0x9FB DUP6 PUSH2 0x8BB JUMP JUMPDEST DUP4 ADD DUP3 PUSH2 0x9A2 JUMP JUMPDEST POP POP JUMPDEST POP POP POP JUMP JUMPDEST PUSH1 0x0 DUP3 DUP3 SHR SWAP1 POP SWAP3 SWAP2 POP POP JUMP JUMPDEST PUSH1 0x0 PUSH2 0xA29 PUSH1 0x0 NOT DUP5 PUSH1 0x8 MUL PUSH2 0xA0B JUMP JUMPDEST NOT DUP1 DUP4 AND SWAP2 POP POP SWAP3 SWAP2 POP POP JUMP JUMPDEST PUSH1 0x0 PUSH2 0xA42 DUP4 DUP4 PUSH2 0xA18 JUMP JUMPDEST SWAP2 POP DUP3 PUSH1 0x2 MUL DUP3 OR SWAP1 POP SWAP3 SWAP2 POP POP JUMP JUMPDEST PUSH2 0xA5B DUP3 PUSH2 0x47E JUMP JUMPDEST PUSH8 0xFFFFFFFFFFFFFFFF DUP2 GT ISZERO PUSH2 0xA74 JUMPI PUSH2 0xA73 PUSH2 0x54E JUMP JUMPDEST JUMPDEST PUSH2 0xA7E DUP3 SLOAD PUSH2 0x809 JUMP JUMPDEST PUSH2 0xA89 DUP3 DUP3 DUP6 PUSH2 0x9C5 JUMP JUMPDEST PUSH1 0x0 PUSH1 0x20 SWAP1 POP PUSH1 0x1F DUP4 GT PUSH1 0x1 DUP2 EQ PUSH2 0xABC JUMPI PUSH1 0x0 DUP5 ISZERO PUSH2 0xAAA JUMPI DUP3 DUP8 ADD MLOAD SWAP1 POP JUMPDEST PUSH2 0xAB4 DUP6 DUP3 PUSH2 0xA36 JUMP JUMPDEST DUP7 SSTORE POP PUSH2 0xB1C JUMP JUMPDEST PUSH1 0x1F NOT DUP5 AND PUSH2 0xACA DUP7 PUSH2 0x8A6 JUMP JUMPDEST PUSH1 0x0 JUMPDEST DUP3 DUP2 LT ISZERO PUSH2 0xAF2 JUMPI DUP5 DUP10 ADD MLOAD DUP3 SSTORE PUSH1 0x1 DUP3 ADD SWAP2 POP PUSH1 0x20 DUP6 ADD SWAP5 POP PUSH1 0x20 DUP2 ADD SWAP1 POP PUSH2 0xACD JUMP JUMPDEST DUP7 DUP4 LT ISZERO PUSH2 0xB0F JUMPI DUP5 DUP10 ADD MLOAD PUSH2 0xB0B PUSH1 0x1F DUP10 AND DUP3 PUSH2 0xA18 JUMP JUMPDEST DUP4 SSTORE POP JUMPDEST PUSH1 0x1 PUSH1 0x2 DUP9 MUL ADD DUP9 SSTORE POP POP POP JUMPDEST POP POP POP POP POP POP JUMP INVALID LOG2 PUSH5 0x6970667358 0x22 SLT KECCAK256 0xEF 0x5D 0xD5 0x4D 0x4F 0xB2 JUMP MLOAD PUSH12 0xB3B0635B93E7D7800061308A EQ 0x28 SDIV 0xA7 PUSH5 0xC12995A8D6 SUB PUSH5 0x736F6C6343 STOP ADDMOD EQ STOP CALLER "
        },
        "methodIdentifiers": {
          "accounts(uint256)": "f2a40db8",
          "addNewWallet(address)": "9d87916a",
          "avatorCid()": "3bd64592",
          "getAvatarCid()": "b3af0dc6",
          "name()": "06fdde03",
          "owner()": "8da5cb5b",
          "updateAvatarCid(string)": "6e47a282"
        }
      }
    }
  }
}