{
  "_format": "hh-sol-artifact-1",
  "contractName": "TradeWithGhoToken",
  "sourceName": "contracts/TradeWithGhoToken.sol",
  "abi": [
    {
      "inputs": [],
      "stateMutability": "nonpayable",
      "type": "constructor"
    },
    {
      "inputs": [
        {
          "internalType": "address",
          "name": "owner",
          "type": "address"
        }
      ],
      "name": "OwnableInvalidOwner",
      "type": "error"
    },
    {
      "inputs": [
        {
          "internalType": "address",
          "name": "account",
          "type": "address"
        }
      ],
      "name": "OwnableUnauthorizedAccount",
      "type": "error"
    },
    {
      "anonymous": false,
      "inputs": [
        {
          "indexed": true,
          "internalType": "address",
          "name": "previousOwner",
          "type": "address"
        },
        {
          "indexed": true,
          "internalType": "address",
          "name": "newOwner",
          "type": "address"
        }
      ],
      "name": "OwnershipTransferred",
      "type": "event"
    },
    {
      "inputs": [
        {
          "internalType": "address",
          "name": "nftContract",
          "type": "address"
        },
        {
          "internalType": "uint256",
          "name": "tokenId",
          "type": "uint256"
        },
        {
          "internalType": "uint256",
          "name": "amount",
          "type": "uint256"
        }
      ],
      "name": "buy",
      "outputs": [],
      "stateMutability": "nonpayable",
      "type": "function"
    },
    {
      "inputs": [],
      "name": "ghoToken",
      "outputs": [
        {
          "internalType": "contract IERC20",
          "name": "",
          "type": "address"
        }
      ],
      "stateMutability": "view",
      "type": "function"
    },
    {
      "inputs": [
        {
          "internalType": "address",
          "name": "",
          "type": "address"
        },
        {
          "internalType": "uint256",
          "name": "",
          "type": "uint256"
        }
      ],
      "name": "listings",
      "outputs": [
        {
          "internalType": "address",
          "name": "owner",
          "type": "address"
        },
        {
          "internalType": "uint256",
          "name": "price",
          "type": "uint256"
        }
      ],
      "stateMutability": "view",
      "type": "function"
    },
    {
      "inputs": [],
      "name": "owner",
      "outputs": [
        {
          "internalType": "address",
          "name": "",
          "type": "address"
        }
      ],
      "stateMutability": "view",
      "type": "function"
    },
    {
      "inputs": [],
      "name": "renounceOwnership",
      "outputs": [],
      "stateMutability": "nonpayable",
      "type": "function"
    },
    {
      "inputs": [
        {
          "internalType": "address",
          "name": "nftContract",
          "type": "address"
        },
        {
          "internalType": "uint256",
          "name": "tokenId",
          "type": "uint256"
        },
        {
          "internalType": "uint256",
          "name": "price",
          "type": "uint256"
        }
      ],
      "name": "sell",
      "outputs": [],
      "stateMutability": "nonpayable",
      "type": "function"
    },
    {
      "inputs": [
        {
          "internalType": "address",
          "name": "newOwner",
          "type": "address"
        }
      ],
      "name": "transferOwnership",
      "outputs": [],
      "stateMutability": "nonpayable",
      "type": "function"
    }
  ],
  "bytecode": "0x608060405234801561001057600080fd5b5033600073ffffffffffffffffffffffffffffffffffffffff168173ffffffffffffffffffffffffffffffffffffffff16036100845760006040517f1e4fbdf700000000000000000000000000000000000000000000000000000000815260040161007b91906101f3565b60405180910390fd5b610093816100ee60201b60201c565b5073c4bf5cbdabe595361438f8c6a187bdc330539c60600160006101000a81548173ffffffffffffffffffffffffffffffffffffffff021916908373ffffffffffffffffffffffffffffffffffffffff16021790555061020e565b60008060009054906101000a900473ffffffffffffffffffffffffffffffffffffffff169050816000806101000a81548173ffffffffffffffffffffffffffffffffffffffff021916908373ffffffffffffffffffffffffffffffffffffffff1602179055508173ffffffffffffffffffffffffffffffffffffffff168173ffffffffffffffffffffffffffffffffffffffff167f8be0079c531659141344cd1fd0a4f28419497f9722a3daafe3b4186f6b6457e060405160405180910390a35050565b600073ffffffffffffffffffffffffffffffffffffffff82169050919050565b60006101dd826101b2565b9050919050565b6101ed816101d2565b82525050565b600060208201905061020860008301846101e4565b92915050565b610c948061021d6000396000f3fe608060405234801561001057600080fd5b506004361061007c5760003560e01c8063715018a61161005b578063715018a6146100ec5780638da5cb5b146100f6578063a59ac6dd14610114578063f2fde38b146101305761007c565b806207df30146100815780635996db91146100b25780636a272462146100d0575b600080fd5b61009b60048036038101906100969190610917565b61014c565b6040516100a9929190610975565b60405180910390f35b6100ba61019d565b6040516100c791906109fd565b60405180910390f35b6100ea60048036038101906100e59190610a18565b6101c3565b005b6100f4610306565b005b6100fe61031a565b60405161010b9190610a6b565b60405180910390f35b61012e60048036038101906101299190610a18565b610343565b005b61014a60048036038101906101459190610a86565b6106a5565b005b6002602052816000526040600020602052806000526040600020600091509150508060000160009054906101000a900473ffffffffffffffffffffffffffffffffffffffff16908060010154905082565b600160009054906101000a900473ffffffffffffffffffffffffffffffffffffffff1681565b8273ffffffffffffffffffffffffffffffffffffffff166323b872dd3330856040518463ffffffff1660e01b815260040161020093929190610ab3565b600060405180830381600087803b15801561021a57600080fd5b505af115801561022e573d6000803e3d6000fd5b5050505060405180604001604052803373ffffffffffffffffffffffffffffffffffffffff16815260200182815250600260008573ffffffffffffffffffffffffffffffffffffffff1673ffffffffffffffffffffffffffffffffffffffff168152602001908152602001600020600084815260200190815260200160002060008201518160000160006101000a81548173ffffffffffffffffffffffffffffffffffffffff021916908373ffffffffffffffffffffffffffffffffffffffff16021790555060208201518160010155905050505050565b61030e61072b565b61031860006107b2565b565b60008060009054906101000a900473ffffffffffffffffffffffffffffffffffffffff16905090565b6000600260008573ffffffffffffffffffffffffffffffffffffffff1673ffffffffffffffffffffffffffffffffffffffff16815260200190815260200160002060008481526020019081526020016000206040518060400160405290816000820160009054906101000a900473ffffffffffffffffffffffffffffffffffffffff1673ffffffffffffffffffffffffffffffffffffffff1673ffffffffffffffffffffffffffffffffffffffff1681526020016001820154815250509050600073ffffffffffffffffffffffffffffffffffffffff16816000015173ffffffffffffffffffffffffffffffffffffffff1603610475576040517f08c379a000000000000000000000000000000000000000000000000000000000815260040161046c90610b6d565b60405180910390fd5b80602001518210156104bc576040517f08c379a00000000000000000000000000000000000000000000000000000000081526004016104b390610bd9565b60405180910390fd5b600160009054906101000a900473ffffffffffffffffffffffffffffffffffffffff1673ffffffffffffffffffffffffffffffffffffffff166323b872dd3330856040518463ffffffff1660e01b815260040161051b93929190610ab3565b6020604051808303816000875af115801561053a573d6000803e3d6000fd5b505050506040513d601f19601f8201168201806040525081019061055e9190610c31565b508373ffffffffffffffffffffffffffffffffffffffff166323b872dd3033866040518463ffffffff1660e01b815260040161059c93929190610ab3565b600060405180830381600087803b1580156105b657600080fd5b505af11580156105ca573d6000803e3d6000fd5b505050506040518060400160405280600073ffffffffffffffffffffffffffffffffffffffff1681526020016000815250600260008673ffffffffffffffffffffffffffffffffffffffff1673ffffffffffffffffffffffffffffffffffffffff168152602001908152602001600020600085815260200190815260200160002060008201518160000160006101000a81548173ffffffffffffffffffffffffffffffffffffffff021916908373ffffffffffffffffffffffffffffffffffffffff1602179055506020820151816001015590505050505050565b6106ad61072b565b600073ffffffffffffffffffffffffffffffffffffffff168173ffffffffffffffffffffffffffffffffffffffff160361071f5760006040517f1e4fbdf70000000000000000000000000000000000000000000000000000000081526004016107169190610a6b565b60405180910390fd5b610728816107b2565b50565b610733610876565b73ffffffffffffffffffffffffffffffffffffffff1661075161031a565b73ffffffffffffffffffffffffffffffffffffffff16146107b057610774610876565b6040517f118cdaa70000000000000000000000000000000000000000000000000000000081526004016107a79190610a6b565b60405180910390fd5b565b60008060009054906101000a900473ffffffffffffffffffffffffffffffffffffffff169050816000806101000a81548173ffffffffffffffffffffffffffffffffffffffff021916908373ffffffffffffffffffffffffffffffffffffffff1602179055508173ffffffffffffffffffffffffffffffffffffffff168173ffffffffffffffffffffffffffffffffffffffff167f8be0079c531659141344cd1fd0a4f28419497f9722a3daafe3b4186f6b6457e060405160405180910390a35050565b600033905090565b600080fd5b600073ffffffffffffffffffffffffffffffffffffffff82169050919050565b60006108ae82610883565b9050919050565b6108be816108a3565b81146108c957600080fd5b50565b6000813590506108db816108b5565b92915050565b6000819050919050565b6108f4816108e1565b81146108ff57600080fd5b50565b600081359050610911816108eb565b92915050565b6000806040838503121561092e5761092d61087e565b5b600061093c858286016108cc565b925050602061094d85828601610902565b9150509250929050565b610960816108a3565b82525050565b61096f816108e1565b82525050565b600060408201905061098a6000830185610957565b6109976020830184610966565b9392505050565b6000819050919050565b60006109c36109be6109b984610883565b61099e565b610883565b9050919050565b60006109d5826109a8565b9050919050565b60006109e7826109ca565b9050919050565b6109f7816109dc565b82525050565b6000602082019050610a1260008301846109ee565b92915050565b600080600060608486031215610a3157610a3061087e565b5b6000610a3f868287016108cc565b9350506020610a5086828701610902565b9250506040610a6186828701610902565b9150509250925092565b6000602082019050610a806000830184610957565b92915050565b600060208284031215610a9c57610a9b61087e565b5b6000610aaa848285016108cc565b91505092915050565b6000606082019050610ac86000830186610957565b610ad56020830185610957565b610ae26040830184610966565b949350505050565b600082825260208201905092915050565b7f43616e6e6f742066696e6420746865204e465420696e20746865206c6973746960008201527f6e67000000000000000000000000000000000000000000000000000000000000602082015250565b6000610b57602283610aea565b9150610b6282610afb565b604082019050919050565b60006020820190508181036000830152610b8681610b4a565b9050919050565b7f4e6f7420656e6f7567682066756e6420746f2062757900000000000000000000600082015250565b6000610bc3601683610aea565b9150610bce82610b8d565b602082019050919050565b60006020820190508181036000830152610bf281610bb6565b9050919050565b60008115159050919050565b610c0e81610bf9565b8114610c1957600080fd5b50565b600081519050610c2b81610c05565b92915050565b600060208284031215610c4757610c4661087e565b5b6000610c5584828501610c1c565b9150509291505056fea26469706673582212203672cd52a13b54769d3e6e7233c9e6848feb6a8be4879fb3e21b2e9e1cd3340964736f6c63430008140033",
  "linkReferences": {},
  "deployedLinkReferences": {}
}