{
  "_format": "hh-sol-artifact-1",
  "contractName": "TradeWithERC20Token",
  "sourceName": "contracts/TradeWithERC20Token.sol",
  "abi": [
    {
      "inputs": [],
      "stateMutability": "nonpayable",
      "type": "constructor"
    },
    {
      "inputs": [
        {
          "internalType": "address",
          "name": "owner",
          "type": "address"
        }
      ],
      "name": "OwnableInvalidOwner",
      "type": "error"
    },
    {
      "inputs": [
        {
          "internalType": "address",
          "name": "account",
          "type": "address"
        }
      ],
      "name": "OwnableUnauthorizedAccount",
      "type": "error"
    },
    {
      "anonymous": false,
      "inputs": [
        {
          "indexed": true,
          "internalType": "address",
          "name": "previousOwner",
          "type": "address"
        },
        {
          "indexed": true,
          "internalType": "address",
          "name": "newOwner",
          "type": "address"
        }
      ],
      "name": "OwnershipTransferred",
      "type": "event"
    },
    {
      "inputs": [
        {
          "internalType": "address",
          "name": "nftContract",
          "type": "address"
        },
        {
          "internalType": "uint256",
          "name": "tokenId",
          "type": "uint256"
        }
      ],
      "name": "buy",
      "outputs": [],
      "stateMutability": "nonpayable",
      "type": "function"
    },
    {
      "inputs": [
        {
          "internalType": "address",
          "name": "",
          "type": "address"
        },
        {
          "internalType": "uint256",
          "name": "",
          "type": "uint256"
        }
      ],
      "name": "listings",
      "outputs": [
        {
          "internalType": "address",
          "name": "owner",
          "type": "address"
        },
        {
          "internalType": "uint256",
          "name": "price",
          "type": "uint256"
        },
        {
          "internalType": "address",
          "name": "erc20",
          "type": "address"
        }
      ],
      "stateMutability": "view",
      "type": "function"
    },
    {
      "inputs": [],
      "name": "owner",
      "outputs": [
        {
          "internalType": "address",
          "name": "",
          "type": "address"
        }
      ],
      "stateMutability": "view",
      "type": "function"
    },
    {
      "inputs": [],
      "name": "renounceOwnership",
      "outputs": [],
      "stateMutability": "nonpayable",
      "type": "function"
    },
    {
      "inputs": [
        {
          "internalType": "address",
          "name": "nftContract",
          "type": "address"
        },
        {
          "internalType": "uint256",
          "name": "tokenId",
          "type": "uint256"
        },
        {
          "internalType": "uint256",
          "name": "price",
          "type": "uint256"
        },
        {
          "internalType": "address",
          "name": "erc20",
          "type": "address"
        }
      ],
      "name": "sell",
      "outputs": [],
      "stateMutability": "nonpayable",
      "type": "function"
    },
    {
      "inputs": [
        {
          "internalType": "address",
          "name": "newOwner",
          "type": "address"
        }
      ],
      "name": "transferOwnership",
      "outputs": [],
      "stateMutability": "nonpayable",
      "type": "function"
    }
  ],
  "bytecode": "0x608060405234801561001057600080fd5b5033600073ffffffffffffffffffffffffffffffffffffffff168173ffffffffffffffffffffffffffffffffffffffff16036100845760006040517f1e4fbdf700000000000000000000000000000000000000000000000000000000815260040161007b919061019e565b60405180910390fd5b6100938161009960201b60201c565b506101b9565b60008060009054906101000a900473ffffffffffffffffffffffffffffffffffffffff169050816000806101000a81548173ffffffffffffffffffffffffffffffffffffffff021916908373ffffffffffffffffffffffffffffffffffffffff1602179055508173ffffffffffffffffffffffffffffffffffffffff168173ffffffffffffffffffffffffffffffffffffffff167f8be0079c531659141344cd1fd0a4f28419497f9722a3daafe3b4186f6b6457e060405160405180910390a35050565b600073ffffffffffffffffffffffffffffffffffffffff82169050919050565b60006101888261015d565b9050919050565b6101988161017d565b82525050565b60006020820190506101b3600083018461018f565b92915050565b610c58806101c86000396000f3fe608060405234801561001057600080fd5b50600436106100615760003560e01c806207df30146100665780632dc8f86714610098578063715018a6146100b45780638da5cb5b146100be578063cce7ec13146100dc578063f2fde38b146100f8575b600080fd5b610080600480360381019061007b919061099f565b610114565b60405161008f939291906109fd565b60405180910390f35b6100b260048036038101906100ad9190610a34565b61018b565b005b6100bc610332565b005b6100c6610346565b6040516100d39190610a9b565b60405180910390f35b6100f660048036038101906100f1919061099f565b61036f565b005b610112600480360381019061010d9190610ab6565b61072d565b005b6001602052816000526040600020602052806000526040600020600091509150508060000160009054906101000a900473ffffffffffffffffffffffffffffffffffffffff16908060010154908060020160009054906101000a900473ffffffffffffffffffffffffffffffffffffffff16905083565b8373ffffffffffffffffffffffffffffffffffffffff166323b872dd3330866040518463ffffffff1660e01b81526004016101c893929190610ae3565b600060405180830381600087803b1580156101e257600080fd5b505af11580156101f6573d6000803e3d6000fd5b5050505060405180606001604052803373ffffffffffffffffffffffffffffffffffffffff1681526020018381526020018273ffffffffffffffffffffffffffffffffffffffff16815250600160008673ffffffffffffffffffffffffffffffffffffffff1673ffffffffffffffffffffffffffffffffffffffff168152602001908152602001600020600085815260200190815260200160002060008201518160000160006101000a81548173ffffffffffffffffffffffffffffffffffffffff021916908373ffffffffffffffffffffffffffffffffffffffff1602179055506020820151816001015560408201518160020160006101000a81548173ffffffffffffffffffffffffffffffffffffffff021916908373ffffffffffffffffffffffffffffffffffffffff16021790555090505050505050565b61033a6107b3565b610344600061083a565b565b60008060009054906101000a900473ffffffffffffffffffffffffffffffffffffffff16905090565b6000600160008473ffffffffffffffffffffffffffffffffffffffff1673ffffffffffffffffffffffffffffffffffffffff16815260200190815260200160002060008381526020019081526020016000206040518060600160405290816000820160009054906101000a900473ffffffffffffffffffffffffffffffffffffffff1673ffffffffffffffffffffffffffffffffffffffff1673ffffffffffffffffffffffffffffffffffffffff168152602001600182015481526020016002820160009054906101000a900473ffffffffffffffffffffffffffffffffffffffff1673ffffffffffffffffffffffffffffffffffffffff1673ffffffffffffffffffffffffffffffffffffffff16815250509050600073ffffffffffffffffffffffffffffffffffffffff16816000015173ffffffffffffffffffffffffffffffffffffffff16036104f7576040517f08c379a00000000000000000000000000000000000000000000000000000000081526004016104ee90610b9d565b60405180910390fd5b806040015173ffffffffffffffffffffffffffffffffffffffff166323b872dd33836000015184602001516040518463ffffffff1660e01b815260040161054093929190610ae3565b6020604051808303816000875af115801561055f573d6000803e3d6000fd5b505050506040513d601f19601f820116820180604052508101906105839190610bf5565b508273ffffffffffffffffffffffffffffffffffffffff166323b872dd3033856040518463ffffffff1660e01b81526004016105c193929190610ae3565b600060405180830381600087803b1580156105db57600080fd5b505af11580156105ef573d6000803e3d6000fd5b505050506040518060600160405280600073ffffffffffffffffffffffffffffffffffffffff16815260200160008152602001600073ffffffffffffffffffffffffffffffffffffffff16815250600160008573ffffffffffffffffffffffffffffffffffffffff1673ffffffffffffffffffffffffffffffffffffffff168152602001908152602001600020600084815260200190815260200160002060008201518160000160006101000a81548173ffffffffffffffffffffffffffffffffffffffff021916908373ffffffffffffffffffffffffffffffffffffffff1602179055506020820151816001015560408201518160020160006101000a81548173ffffffffffffffffffffffffffffffffffffffff021916908373ffffffffffffffffffffffffffffffffffffffff160217905550905050505050565b6107356107b3565b600073ffffffffffffffffffffffffffffffffffffffff168173ffffffffffffffffffffffffffffffffffffffff16036107a75760006040517f1e4fbdf700000000000000000000000000000000000000000000000000000000815260040161079e9190610a9b565b60405180910390fd5b6107b08161083a565b50565b6107bb6108fe565b73ffffffffffffffffffffffffffffffffffffffff166107d9610346565b73ffffffffffffffffffffffffffffffffffffffff1614610838576107fc6108fe565b6040517f118cdaa700000000000000000000000000000000000000000000000000000000815260040161082f9190610a9b565b60405180910390fd5b565b60008060009054906101000a900473ffffffffffffffffffffffffffffffffffffffff169050816000806101000a81548173ffffffffffffffffffffffffffffffffffffffff021916908373ffffffffffffffffffffffffffffffffffffffff1602179055508173ffffffffffffffffffffffffffffffffffffffff168173ffffffffffffffffffffffffffffffffffffffff167f8be0079c531659141344cd1fd0a4f28419497f9722a3daafe3b4186f6b6457e060405160405180910390a35050565b600033905090565b600080fd5b600073ffffffffffffffffffffffffffffffffffffffff82169050919050565b60006109368261090b565b9050919050565b6109468161092b565b811461095157600080fd5b50565b6000813590506109638161093d565b92915050565b6000819050919050565b61097c81610969565b811461098757600080fd5b50565b60008135905061099981610973565b92915050565b600080604083850312156109b6576109b5610906565b5b60006109c485828601610954565b92505060206109d58582860161098a565b9150509250929050565b6109e88161092b565b82525050565b6109f781610969565b82525050565b6000606082019050610a1260008301866109df565b610a1f60208301856109ee565b610a2c60408301846109df565b949350505050565b60008060008060808587031215610a4e57610a4d610906565b5b6000610a5c87828801610954565b9450506020610a6d8782880161098a565b9350506040610a7e8782880161098a565b9250506060610a8f87828801610954565b91505092959194509250565b6000602082019050610ab060008301846109df565b92915050565b600060208284031215610acc57610acb610906565b5b6000610ada84828501610954565b91505092915050565b6000606082019050610af860008301866109df565b610b0560208301856109df565b610b1260408301846109ee565b949350505050565b600082825260208201905092915050565b7f43616e6e6f742066696e6420746865204e465420696e20746865206c6973746960008201527f6e67000000000000000000000000000000000000000000000000000000000000602082015250565b6000610b87602283610b1a565b9150610b9282610b2b565b604082019050919050565b60006020820190508181036000830152610bb681610b7a565b9050919050565b60008115159050919050565b610bd281610bbd565b8114610bdd57600080fd5b50565b600081519050610bef81610bc9565b92915050565b600060208284031215610c0b57610c0a610906565b5b6000610c1984828501610be0565b9150509291505056fea264697066735822122058d7bb239a896ddb71235bd3fcf6d1dc648219f45545a2915f4919728722360164736f6c63430008140033",
  "linkReferences": {},
  "deployedLinkReferences": {}
}