{
  "_format": "hh-sol-artifact-1",
  "contractName": "ERC721_Factory",
  "sourceName": "contracts/ERC721Factory.sol",
  "abi": [
    {
      "inputs": [
        {
          "internalType": "address",
          "name": "_ERC721Impl",
          "type": "address"
        }
      ],
      "stateMutability": "nonpayable",
      "type": "constructor"
    },
    {
      "inputs": [],
      "name": "ERC1167FailedCreateClone",
      "type": "error"
    },
    {
      "anonymous": false,
      "inputs": [
        {
          "indexed": false,
          "internalType": "address",
          "name": "creator",
          "type": "address"
        },
        {
          "indexed": false,
          "internalType": "address",
          "name": "collection",
          "type": "address"
        }
      ],
      "name": "CreateNFTCollection",
      "type": "event"
    },
    {
      "inputs": [],
      "name": "ERC721Impl",
      "outputs": [
        {
          "internalType": "address",
          "name": "",
          "type": "address"
        }
      ],
      "stateMutability": "view",
      "type": "function"
    },
    {
      "inputs": [
        {
          "internalType": "string",
          "name": "_contract_name",
          "type": "string"
        },
        {
          "internalType": "string",
          "name": "_symbol_name",
          "type": "string"
        },
        {
          "internalType": "uint256",
          "name": "_salePrice",
          "type": "uint256"
        },
        {
          "internalType": "uint256",
          "name": "_maxSupply",
          "type": "uint256"
        },
        {
          "internalType": "bytes32",
          "name": "salt",
          "type": "bytes32"
        }
      ],
      "name": "setupNFTCollection",
      "outputs": [
        {
          "internalType": "address",
          "name": "",
          "type": "address"
        }
      ],
      "stateMutability": "nonpayable",
      "type": "function"
    }
  ],
  "bytecode": "0x608060405234801561001057600080fd5b50604051610782380380610782833981810160405281019061003291906100db565b806000806101000a81548173ffffffffffffffffffffffffffffffffffffffff021916908373ffffffffffffffffffffffffffffffffffffffff16021790555050610108565b600080fd5b600073ffffffffffffffffffffffffffffffffffffffff82169050919050565b60006100a88261007d565b9050919050565b6100b88161009d565b81146100c357600080fd5b50565b6000815190506100d5816100af565b92915050565b6000602082840312156100f1576100f0610078565b5b60006100ff848285016100c6565b91505092915050565b61066b806101176000396000f3fe608060405234801561001057600080fd5b50600436106100365760003560e01c806359b25b161461003b5780637c3887e21461006b575b600080fd5b6100556004803603810190610050919061040e565b610089565b6040516100629190610502565b60405180910390f35b610073610171565b6040516100809190610502565b60405180910390f35b6000806100b660008054906101000a900473ffffffffffffffffffffffffffffffffffffffff1684610195565b90508073ffffffffffffffffffffffffffffffffffffffff166333eea18188888888336040518663ffffffff1660e01b81526004016100f99594939291906105ab565b600060405180830381600087803b15801561011357600080fd5b505af1158015610127573d6000803e3d6000fd5b505050507f2dab5d46b07f16e1654b6167b41d11bd28d3b293126c0559d2d62c47c3896700338260405161015c92919061060c565b60405180910390a18091505095945050505050565b60008054906101000a900473ffffffffffffffffffffffffffffffffffffffff1681565b6000763d602d80600a3d3981f3363d3d373d3d3d363d730000008360601b60e81c176000526e5af43d82803e903d91602b57fd5bf38360781b1760205281603760096000f59050600073ffffffffffffffffffffffffffffffffffffffff168173ffffffffffffffffffffffffffffffffffffffff1603610242576040517fc2f868f400000000000000000000000000000000000000000000000000000000815260040160405180910390fd5b92915050565b6000604051905090565b600080fd5b600080fd5b600080fd5b600080fd5b6000601f19601f8301169050919050565b7f4e487b7100000000000000000000000000000000000000000000000000000000600052604160045260246000fd5b6102af82610266565b810181811067ffffffffffffffff821117156102ce576102cd610277565b5b80604052505050565b60006102e1610248565b90506102ed82826102a6565b919050565b600067ffffffffffffffff82111561030d5761030c610277565b5b61031682610266565b9050602081019050919050565b82818337600083830152505050565b6000610345610340846102f2565b6102d7565b90508281526020810184848401111561036157610360610261565b5b61036c848285610323565b509392505050565b600082601f8301126103895761038861025c565b5b8135610399848260208601610332565b91505092915050565b6000819050919050565b6103b5816103a2565b81146103c057600080fd5b50565b6000813590506103d2816103ac565b92915050565b6000819050919050565b6103eb816103d8565b81146103f657600080fd5b50565b600081359050610408816103e2565b92915050565b600080600080600060a0868803121561042a57610429610252565b5b600086013567ffffffffffffffff81111561044857610447610257565b5b61045488828901610374565b955050602086013567ffffffffffffffff81111561047557610474610257565b5b61048188828901610374565b9450506040610492888289016103c3565b93505060606104a3888289016103c3565b92505060806104b4888289016103f9565b9150509295509295909350565b600073ffffffffffffffffffffffffffffffffffffffff82169050919050565b60006104ec826104c1565b9050919050565b6104fc816104e1565b82525050565b600060208201905061051760008301846104f3565b92915050565b600081519050919050565b600082825260208201905092915050565b60005b8381101561055757808201518184015260208101905061053c565b60008484015250505050565b600061056e8261051d565b6105788185610528565b9350610588818560208601610539565b61059181610266565b840191505092915050565b6105a5816103a2565b82525050565b600060a08201905081810360008301526105c58188610563565b905081810360208301526105d98187610563565b90506105e8604083018661059c565b6105f5606083018561059c565b61060260808301846104f3565b9695505050505050565b600060408201905061062160008301856104f3565b61062e60208301846104f3565b939250505056fea264697066735822122003a0bb3d808b52a3e40581a79a9faefbceb94b33ef2c2892f2cf6f0234eb395164736f6c63430008140033",
  "linkReferences": {},
  "deployedLinkReferences": {}
}