{
  "_format": "hh-sol-artifact-1",
  "contractName": "Soul",
  "sourceName": "contracts/Soul.sol",
  "abi": [
    {
      "inputs": [
        {
          "internalType": "string",
          "name": "_name",
          "type": "string"
        }
      ],
      "stateMutability": "nonpayable",
      "type": "constructor"
    },
    {
      "inputs": [
        {
          "internalType": "uint256",
          "name": "",
          "type": "uint256"
        }
      ],
      "name": "accounts",
      "outputs": [
        {
          "internalType": "address",
          "name": "",
          "type": "address"
        }
      ],
      "stateMutability": "view",
      "type": "function"
    },
    {
      "inputs": [
        {
          "internalType": "address",
          "name": "_accountAddress",
          "type": "address"
        }
      ],
      "name": "addNewWallet",
      "outputs": [],
      "stateMutability": "nonpayable",
      "type": "function"
    },
    {
      "inputs": [],
      "name": "name",
      "outputs": [
        {
          "internalType": "string",
          "name": "",
          "type": "string"
        }
      ],
      "stateMutability": "view",
      "type": "function"
    }
  ],
  "bytecode": "0x60806040523480156200001157600080fd5b50604051620009be380380620009be8339818101604052810190620000379190620001e3565b80600190816200004891906200047f565b505062000566565b6000604051905090565b600080fd5b600080fd5b600080fd5b600080fd5b6000601f19601f8301169050919050565b7f4e487b7100000000000000000000000000000000000000000000000000000000600052604160045260246000fd5b620000b9826200006e565b810181811067ffffffffffffffff82111715620000db57620000da6200007f565b5b80604052505050565b6000620000f062000050565b9050620000fe8282620000ae565b919050565b600067ffffffffffffffff8211156200012157620001206200007f565b5b6200012c826200006e565b9050602081019050919050565b60005b83811015620001595780820151818401526020810190506200013c565b60008484015250505050565b60006200017c620001768462000103565b620000e4565b9050828152602081018484840111156200019b576200019a62000069565b5b620001a884828562000139565b509392505050565b600082601f830112620001c857620001c762000064565b5b8151620001da84826020860162000165565b91505092915050565b600060208284031215620001fc57620001fb6200005a565b5b600082015167ffffffffffffffff8111156200021d576200021c6200005f565b5b6200022b84828501620001b0565b91505092915050565b600081519050919050565b7f4e487b7100000000000000000000000000000000000000000000000000000000600052602260045260246000fd5b600060028204905060018216806200028757607f821691505b6020821081036200029d576200029c6200023f565b5b50919050565b60008190508160005260206000209050919050565b60006020601f8301049050919050565b600082821b905092915050565b600060088302620003077fffffffffffffffffffffffffffffffffffffffffffffffffffffffffffffffff82620002c8565b620003138683620002c8565b95508019841693508086168417925050509392505050565b6000819050919050565b6000819050919050565b6000620003606200035a62000354846200032b565b62000335565b6200032b565b9050919050565b6000819050919050565b6200037c836200033f565b620003946200038b8262000367565b848454620002d5565b825550505050565b600090565b620003ab6200039c565b620003b881848462000371565b505050565b5b81811015620003e057620003d4600082620003a1565b600181019050620003be565b5050565b601f8211156200042f57620003f981620002a3565b6200040484620002b8565b8101602085101562000414578190505b6200042c6200042385620002b8565b830182620003bd565b50505b505050565b600082821c905092915050565b6000620004546000198460080262000434565b1980831691505092915050565b60006200046f838362000441565b9150826002028217905092915050565b6200048a8262000234565b67ffffffffffffffff811115620004a657620004a56200007f565b5b620004b282546200026e565b620004bf828285620003e4565b600060209050601f831160018114620004f75760008415620004e2578287015190505b620004ee858262000461565b8655506200055e565b601f1984166200050786620002a3565b60005b8281101562000531578489015182556001820191506020850194506020810190506200050a565b868310156200055157848901516200054d601f89168262000441565b8355505b6001600288020188555050505b505050505050565b61044880620005766000396000f3fe608060405234801561001057600080fd5b50600436106100415760003560e01c806306fdde03146100465780639d87916a14610064578063f2a40db814610080575b600080fd5b61004e6100b0565b60405161005b9190610273565b60405180910390f35b61007e600480360381019061007991906102f8565b61013e565b005b61009a6004803603810190610095919061035b565b6101a4565b6040516100a79190610397565b60405180910390f35b600180546100bd906103e1565b80601f01602080910402602001604051908101604052809291908181526020018280546100e9906103e1565b80156101365780601f1061010b57610100808354040283529160200191610136565b820191906000526020600020905b81548152906001019060200180831161011957829003601f168201915b505050505081565b6000819080600181540180825580915050600190039060005260206000200160009091909190916101000a81548173ffffffffffffffffffffffffffffffffffffffff021916908373ffffffffffffffffffffffffffffffffffffffff16021790555050565b600081815481106101b457600080fd5b906000526020600020016000915054906101000a900473ffffffffffffffffffffffffffffffffffffffff1681565b600081519050919050565b600082825260208201905092915050565b60005b8381101561021d578082015181840152602081019050610202565b60008484015250505050565b6000601f19601f8301169050919050565b6000610245826101e3565b61024f81856101ee565b935061025f8185602086016101ff565b61026881610229565b840191505092915050565b6000602082019050818103600083015261028d818461023a565b905092915050565b600080fd5b600073ffffffffffffffffffffffffffffffffffffffff82169050919050565b60006102c58261029a565b9050919050565b6102d5816102ba565b81146102e057600080fd5b50565b6000813590506102f2816102cc565b92915050565b60006020828403121561030e5761030d610295565b5b600061031c848285016102e3565b91505092915050565b6000819050919050565b61033881610325565b811461034357600080fd5b50565b6000813590506103558161032f565b92915050565b60006020828403121561037157610370610295565b5b600061037f84828501610346565b91505092915050565b610391816102ba565b82525050565b60006020820190506103ac6000830184610388565b92915050565b7f4e487b7100000000000000000000000000000000000000000000000000000000600052602260045260246000fd5b600060028204905060018216806103f957607f821691505b60208210810361040c5761040b6103b2565b5b5091905056fea26469706673582212200f4ef4f1e9252404dd8e65e1eeef6df4ad646ee01b8cb2cb282dbb7b50a0710564736f6c63430008130033",
  "linkReferences": {},
  "deployedLinkReferences": {}
}